:020000040800F2
:10000000D0090020C9010008631200081D0F000874
:1000100061120008CF02000835140008000000003B
:10002000000000000000000000000000171300089E
:10003000D102000800000000151300081913000881
:10004000E3010008E3010008E3010008E301000800
:10005000E3010008E3010008E3010008E3010008F0
:10006000E3010008E3010008E3010008E3010008E0
:10007000E3010008E3010008E3010008E3010008D0
:10008000E3010008E3010008E3010008E3010008C0
:10009000E3010008E3010008E3010008E3010008B0
:1000A000E3010008E3010008E3010008E3010008A0
:1000B000E3010008E3010008E3010008E301000890
:1000C000E3010008E3010008E3010008E301000880
:1000D000E3010008E3010008E3010008E301000870
:1000E000E3010008E3010008E301000800F002F862
:1000F00000F05AF80AA090E8000C82448344AAF168
:100100000107DA4501D100F04FF8AFF2090EBAE865
:100110000F0013F0010F18BFFB1A43F0010318473B
:1001200024150000441500000A444FF0000C10F89C
:10013000013B13F0070408BF10F8014B1D1108BF65
:1001400010F8015B641E05D010F8016B641E01F805
:10015000016BF9D113F0080F1EBF10F8014BAD1C55
:100160000C1B09D16D1E58BF01F801CBFAD505E073
:1001700014F8016B01F8016B6D1EF9D59142D6D3CD
:10018000704700000023002400250026103A28BFF5
:1001900078C1FBD8520728BF30C148BF0B607047F9
:1001A0001FB51FBD10B510BD00F058F81146FFF780
:1001B000F7FF01F051F900F076F803B4FFF7F2FF12
:1001C00003BC00F07DF8000009488047094800475B
:1001D000FEE7FEE7FEE7FEE7FEE7FEE7FEE7FEE7F7
:1001E000FEE7FEE704480549054A064B7047000054
:1001F0007B130008ED000008D0030020D009002088
:10020000D0050020D00500204FF0000200B51346B5
:1002100094469646203922BFA0E80C50A0E80C5026
:10022000B1F12001BFF4F7AF090728BFA0E80C50D7
:1002300048BF0CC05DF804EB890028BF40F8042BD0
:1002400008BF704748BF20F8022B11F0804F18BF3D
:1002500000F8012B7047704770477047754600F0F3
:100260002BF8AE4605006946534620F00700854648
:1002700018B020B5FFF7B6FFBDE820404FF00006EC
:100280004FF000074FF000084FF0000B21F007017E
:10029000AC46ACE8C009ACE8C009ACE8C009ACE8C1
:1002A000C0098D46704710B50446AFF30080204664
:1002B000BDE81040FFF781BF004870476C03002085
:1002C00001491820ABBEFEE7260002007047FEE79A
:1002D0007047000070B5044600F00CF90546601C3C
:1002E00002D004480078044400F004F9401BA04206
:1002F000FAD370BDC00200202DE9F84FDFF8B891A5
:100300000024A9F1040B23460F2709F1040AABF1DD
:10031000040EC9E00125A5402A40AA427DD1674EBE
:10032000D1F804C0ACEB0608B44532D014DCBCF103
:10033000030F3AD009DCBCF1000F2AD0BCF1010F49
:100340001CD0BCF1020F31D11DE0BCF1110F17D050
:10035000BCF1120F2AD119E0B8F5881F19D006DCBC
:10036000B8F5803F15D0B8F5801F1FD111E0B8F562
:10037000001F0ED0B8F5041F18D10AE0CB6815E0B5
:10038000CB681B1D12E0CB6808330FE0CB680C3341
:100390000CE08B682BB1012B4FF0080303D04561B3
:1003A00004E0042302E0056100E00023FF2A01D8F5
:1003B000064601E000F104064FEA840501D9A5F1E3
:1003C0002005D6F8008007FA05FC28EA0C0803FA95
:1003D00005F548EA0508C6F800804D68ED0062D5CD
:1003E000374DAE6946F00106AE61AD6924F00306F3
:1003F00005F001050095334D06EB050CDCF80850BF
:10040000A607360F07FA06F825EA0805DFF8B880D0
:10041000404503D14FF0000817E044E0DFF8AC801E
:10042000404502D14FF001080FE0DFF8A4804045BD
:1004300002D14FF0020808E0DFF89880404502D171
:100440004FF0030801E04FF0040808FA06F848EA04
:100450000508CCF808804D68D9F80060ED024D46DB
:1004600001D5164300E096432E604D68DAF800602F
:10047000AD02554601D5164300E096432E604D6807
:10048000DBF80060AD035D4601D5164300E09643FE
:100490002E604D68DEF80060ED03754601D5164309
:1004A00000E096432E60641C0D682A46E5407FF408
:1004B00031AFBDE8F88F00000804014000001110C2
:1004C000001002400000014000080140000C014003
:1004D0000010014000140140C26821EA02030A40F2
:1004E00043EA0241016170470AB1016170470904A2
:1004F000FBE700000148806870470000C002002050
:1005000070B5040025D094F83D00002520B984F88A
:100510003C50204600F050F9242084F83D0020682B
:10052000016821F0010101602068016841F4004187
:1005300001602068016821F40041016000F09AFA2E
:100540004D4A6168914201D84C4900E04C498842CB
:1005500001D2012070BD4B492368B0FBF1F15E6808
:1005600026F03F060E435E606368934206D94FF45F
:10057000967359434FF47A73B1FBF3F12368491C26
:100580001E6A26F03F06314319626168914210D815
:100590004900401EB0FBF1F2521CC2F30B02042AC8
:1005A00001D2042022E0B0FBF1F0401CC0F30B00AC
:1005B0001CE0A268F2B301EBC10303EB0116431E7A
:1005C000B3FBF6F35B1C43F480431B0549D092B3A5
:1005D00001EBC10202EB0111401EB0FBF1F0401C27
:1005E000C0F30B0040F4804040F400402168CA6929
:1005F0004CF6FF739A431043C861D4E907100143D6
:100600002068026822F0C00211430160D4E90301AE
:1006100001432068826848F2FF339A4311438160A6
:10062000D4E9050108432168CA6822F0FF0210439B
:10063000C86001E00EE016E02068016841F00101A9
:1006400001602564202084F83D00256384F83E5035
:10065000002070BD01EB4106431EB3FBF6F35B1CAB
:10066000B3E70120C2E701EB4101401EB0FBF1F00E
:10067000401CC0F30B00B7E7A086010080841E0079
:1006800000093D0040420F002DE9FF4F83B09A461C
:10069000DDE9119793460446DDF84080FFF72AFF15
:1006A000054694F83D0020287FD1192301224049B6
:1006B0002046009500F0CAFC002876D194F83C0052
:1006C000012872D0012084F83C0020680168C90725
:1006D00003D1016841F0010101602068016821F443
:1006E00000610160212084F83D00402084F83E0034
:1006F00000262664C4F82480A4F82A90608D208502
:100700002C48E062CDE9007553465A4620460499CC
:1007100000F01CFC70B930E02A463946204600F053
:100720003BFD58B1206C042804D12068016841F4D5
:1007300000710160012007B0BDE8F08F606A216898
:1007400000780861606A401C6062218D491E89B290
:100750002185628D521E628522685369DB435B07E7
:100760000BD469B100781061606A401C6062208D12
:10077000401E2085608D401E6085208D0028CBD1D5
:100780002A463946204600F035FC0028CAD154F8E4
:100790003D0B016841F400710160202004F81E093E
:1007A000E67766770020C6E7FFE70220C3E7000090
:1007B000020010000000FFFF30B585B0002100915D
:1007C00001910291039100681749884229D1174C81
:1007D000A06940F00800A061A06900F00800049042
:1007E000E06940F40010E061E069114D00F4001090
:1007F000049040200090122001900320039069464D
:100800002846FFF779FD8020009069462846FFF7CB
:1008100073FD206940F400102061206920F400106D
:10082000206105B030BD00000054004000100240BF
:10083000000C0140024881680278114481607047D1
:10084000C0020020074810B5016841F010010160A6
:10085000032000F067F80F2000F006F800F024F8FD
:10086000002010BD0020024070B50D4D04464FF42D
:100870007A712878B1FBF0F00A490968B1FBF0F011
:1008800000F0CEFA48B9102C07D200222146501EA3
:1008900000F028F800206C6070BD012070BD0000E1
:1008A000C0020020CC0200200C4808B5816941F04C
:1008B00001018161816901F001010091C16941F08B
:1008C0008051C161C06900F08050009004484168C7
:1008D00021F0E06141F00071416008BD001002406C
:1008E00000000140F0B40E4B1B680C46C3F302231A
:1008F000C3F10705042D00D90425191D072901D2CC
:10090000002300E0DB1E012606FA05F1491E214006
:1009100099409E40761E16403143F0BC00F08BBDDE
:100920000CED00E0064900F0070208684FF6FF03EF
:10093000184040EA0220034A104308607047000054
:100940000CED00E00000FA052DE9F0470F46050028
:1009500061D0434E306800F00700B84209D23068D9
:1009600020F0070038433060306800F00700B842DC
:1009700051D128683B4C810712D5400703D56068E8
:1009800040F4E06060602878000703D5606840F4B8
:10099000605060606068A96820F0F0000843606003
:1009A0002878C00728D06868012810D0216802285C
:1009B00010D0890700292EDA616821F00301014374
:1009C0006160FFF797FD804641F288390DE02168AC
:1009D0008903EFE78901EDE7FFF78CFDA0EB080144
:1009E000494502D90320BDE8F0876068696800F0D6
:1009F0000C00B0EB810FEFD1306800F00700B84277
:100A00000BD9306820F0070038433060306800F0C0
:100A10000700B84201D00120E5E72878400705D556
:100A20006068E96820F4E0600843606028780007A7
:100A300006D56068296920F4605040EAC100606012
:100A400000F038F86168084AC1F30311515CC840EE
:100A50000649086006480068FFF706FF0020C2E765
:100A600000200240001002402C160008CC0200209A
:100A7000C40200200448054900684968044AC1F3DB
:100A80000221515CC8407047CC0200200010024097
:100A90003C1600080448054900684968044AC1F347
:100AA000C221515CC8407047CC02002000100240B7
:100AB0003C1600080E4A51680E4801F00C03042B46
:100AC00011D0082B0FD10C48C1F38343C903C05C7C
:100AD0000AD55168084AC1F34041921E515C054A4B
:100AE0005043B0FBF1F070470449484370470000A1
:100AF0000010024000127A001C16000800093D0098
:100B00002DE9F84F040070D02078C04DC00749D0BF
:100B10006868C0F38100012807D06868C0F38100CD
:100B2000022809D16868C00306D52868800339D532
:100B300060680028E7D035E06068B0F5803F0BD0F2
:100B400010B1B0F5A02F11D0286820F480302860B3
:100B5000286820F4802002E0286840F48030286073
:100B6000606890B1FFF7C6FC06460AE0286840F4CA
:100B700080202860F0E700BFFFF7BCFC801B6428E2
:100B800073D828688003F7D50CE0FFF7B3FC06465E
:100B900005E000BFFFF7AEFC801B6428F0D8286892
:100BA0008003F7D420789A4E80074FF001094FF068
:100BB000000839D5686810F00C0F07D06868C0F3DA
:100BC0008100022809D16868C00306D4286880071C
:100BD00014D52069012808D110E02069B0B1C6F809
:100BE0000090FFF787FC074605E00AE1FFF782FC6B
:100BF000C01B0228C4D828688007F7D52868616917
:100C000020F0F80040EAC10028600DE0C6F800803E
:100C1000FFF770FC074604E0FFF76CFCC01B0228DE
:100C200023D828688007F7D4207800072CD5794886
:100C3000A169D9B1C0F80090FFF75CFC074604E059
:100C4000FFF758FCC01B02280FD8686A8007F7D549
:100C500071484FF4FA510068B0FBF1F0009000BF0A
:100C60000098411E0091FAD20EE080E0C0F80080AA
:100C7000FFF740FC074604E0FFF73CFCC01B0228DE
:100C800075D8686A8007F7D42078400760D5E8698E
:100C90000027C00008D4E86940F08050E861E869A6
:100CA000012700F0805000905C480168C90513D40A
:100CB0000168834641F480710160FFF71BFC8246A6
:100CC00006E000BFFFF716FCA0EB0A0064284ED830
:100CD000DBF80000C005F5D5E06801280AD008B1AE
:100CE000052813D0286A20F001002862286A20F025
:100CF000040002E0286A40F001002862E06841F246
:100D0000883B98B1FFF7F6FB82460BE0286A40F07B
:100D100004002862EEE700BFFFF7ECFBA0EB0A013E
:100D200059455AD8286A8007F6D50CE0FFF7E2FB50
:100D3000824605E0FFF7DEFBA0EB0A0159454CD8DF
:100D4000286A8007F6D41FB1E86920F08050E86176
:100D5000E06988B36968C1F38101022944D002289F
:100D6000C6F8608004D0FFF7C5FB044638E034E0E5
:100D7000FFF7C0FB074604E0FFF7BCFBC01B0228DF
:100D80002BD828688001F7D4206AB0F5803F05D1C0
:100D90006868A16820F4003008436860D4E908015D
:100DA0000843696821F4741108436860C6F86090CC
:100DB000FFF7A0FB044606E025E000BFFFF79AFB23
:100DC000001B022809D828688001F7D51BE000BF66
:100DD000FFF790FB001B022802D90320BDE8F88F23
:100DE00028688001F4D40EE00128F7D06868226AF0
:100DF00000F48031914204D1616A00F4701088429D
:100E000001D00120EAE70020E8E7000000100240DE
:100E10000000424280044242CC02002000700040A8
:100E200010B5401EB0F1807F01D3012010BD4FF0FE
:100E3000E02460610F21601700F0FDFA0020A0613E
:100E400007202061002010BD70B5040004D094F884
:100E50004100002510B106E0012070BD84F840502B
:100E6000204600F023F8242084F841002068C1685F
:100E700021F40051C160204600F080FA2068016929
:100E800021F4904101612068416921F02A0141610A
:100E90002068C16841F40051C1606564202084F875
:100EA000410084F842006563002070BD30B585B014
:100EB0000024009401940294039400681449884229
:100EC00024D11448816941F480418161816901F430
:100ED00080410491816941F00401816180690E4D76
:100EE00000F0040004904FF4007000900220019084
:100EF0000320039069462846FFF7FEF92815CDE93F
:100F00000004694628460294FFF7F6F905B030BDA3
:100F1000003801400010024000080140FEE701686F
:100F20004A69D24352050FD46FF480624A610021AE
:100F300040F8301F202242738173026942F004029C
:100F40000261017301207047002070472DE9F843CA
:100F5000044600680D46DDE9089701689846164684
:100F600041F4807101604B4600224FF00111204690
:100F7000009700F06BF848B120680068C00502D502
:100F80004FF4007020640320BDE8F883216805F069
:100F9000FE0008613B464A461549204600F09EF88F
:100FA00088B920684169806900903A4649462046E0
:100FB00000F0F2F848B1206C042804D120680168E0
:100FC00041F4007101600120DEE7F5B2B8F1010FD4
:100FD00009D02168300A08613A464946204600F0A7
:100FE000DBF80028E7D1206805610020CCE700008D
:100FF0000200010070B516460D4604461EE020466C
:10100000FFF78DFF08B1012070BD681C16D0FFF7F7
:1010100071FA801BA84200D885B920684069C04396
:1010200040070BD5002044F8300F20216173A073D6
:10103000216941F0200121612073E4E720684069C3
:10104000C0434007DBD4002070BD00002DE9F0470D
:10105000984617460D460446C1F30746DDF8209032
:101060002AE000BFB8F1FF3F26D0FFF743FAA0EB1C
:101070000901414502D8B8F1000F1DD12068012EA9
:1010800016D0806925EA00000004000C12D0002070
:10109000B84211D1002044F8300F20216173A073B1
:1010A000216941F02001216120730120BDE8F08712
:1010B0004069E7E70120EBE72068012E0AD080694C
:1010C00025EA00000004000C06D00020B842C9D078
:1010D0000020EBE74069F3E70120F7E72DE9F0474F
:1010E000984616460D4604464FF000094FF0200A78
:1010F000C1F3074723E020684069C043400515D489
:101100002068016841F40071016021686FF480601B
:101110004861C4F8309084F83DA084F83E90216C7A
:1011200041F00401216484F83C9021E0701C06D059
:10113000FFF7E0F9A0EB0800B04203D816B1012F89
:101140001FD021E02068012F15D0806925EA00001A
:101150000004000C18D000BF44F8309F84F80DA0A4
:1011600084F80E90216941F02001216184F80C90EF
:101170000120BDE8F087406925EA00000004000C6A
:10118000EAD12068406901E02068806925EA000012
:101190000004000CAFD1ECE770B516460D460446CE
:1011A0001EE02046FFF7BBFE08B1012070BD681CA1
:1011B00016D0FFF79FF9801BA84200D885B9206898
:1011C0004069C04300060BD5002044F8300F2021B1
:1011D0006173A073216941F0200121612073E4E76C
:1011E00020684069C0430006DBD4002070BD0000C9
:1011F00030B585B000200090019002900390164811
:10120000816941F010018161816901F0100104914F
:10121000816941F020018161816901F0200104911F
:10122000816941F00401816180690C4D00F0040086
:101230004FF400540490002221462846FFF754F949
:1012400001210220CDE90210CDE90041694628467E
:10125000FFF752F805B030BD001002400010014009
:10126000FEE7FEE710B50446B031C8B2002100F039
:1012700035F8102040EA1410002100F02FF804F097
:101280000F00BDE81040002100F028B82DE9F04122
:1012900015460E460746FFF7E5FF0F48002400EB12
:1012A00085150121285D00F019F8641CE4B2102CAA
:1012B000F7D3761CF1B23846FFF7D4FF0024281983
:1012C000012190F8200000F009F8641CE4B2102C11
:1012D000F5D3BDE8F08100000000002003B583B025
:1012E0000120020203AB61B1012908D1CDE9003030
:1012F00002920123402278210548FFF7C5F905B085
:1013000000BDCDE90030029201230022F3E7000086
:101310001803002070477047FFF78CBA30B58FB0C4
:1013200028216846FEF770FF14210AA8FEF76CFF1B
:1013300001210804CDE90010002402940225049143
:10134000CDE907504FF4E01009906846FFF7D8FB4D
:1013500008B172B6FEE70F20CDE90A054FF48060B0
:10136000CDE90C4002210AA80E94FFF7EDFA0028FF
:1013700001D072B6FEE70FB030BD704770B50446BD
:1013800000680169E26821F440511143016121695B
:10139000A0680843616908432168CA6841F20C6388
:1013A0009A430243CA6020684169A26921F44071EE
:1013B000114341611E492068884202D1FFF76AFB50
:1013C00001E0FFF757FB00EBC00101EB0012606882
:1013D00064218000B2FBF0F3B3FBF1F36FF0180669
:1013E0007343B2FBF0F5B2FBF0F605EB8305322355
:1013F00003EB0515B5FBF1F5B6FBF1F605F0F005CD
:1014000005EB0615B2FBF0F6B2FBF0F0B0FBF1F025
:101410006FF01802504306EB800003EB0010B0FBA6
:10142000F1F0216800F00F002844886070BD0000D2
:1014300000380140FEE70907090E002804DB00F12F
:10144000E02080F80014704700F00F0000F1E02069
:1014500080F8141D70470000FFF7F4F9FFF75EFFF6
:10146000FFF7C6FE32483149002401604FF4E131F4
:10147000C0E901140C21C460C0E904418461C46165
:10148000FFF7E2FC08B172B6FEE729492948483166
:101490004FF47A7508600014C1E90404C1E90154ED
:1014A000CC610C6207208C61C8600846FFF728F801
:1014B00000F044F85FF0000404F1B000C0B2002175
:1014C000FFF70CFF00210846FFF708FF002110205E
:1014D000FFF704FF002601210020FFF7FFFE761C26
:1014E000F6B2802EF7D3641CE4B2082CE4D30322B6
:1014F00000211220FFF7CAFE042200212420FFF75A
:10150000C5FE052200214820FFF7C0FE062200216B
:101510005A20FFF7BBFE084E4FF4005421463046D8
:10152000FEF7DAFF2846FEF7D5FEF7E70038014060
:10153000D0020020005400400010014010B50021EE
:10154000AE20FFF7CBFE00210846FFF7C7FE0021C3
:101550001020FFF7C3FE00214020FFF7BFFE00214F
:10156000B020FFF7BBFE00218120FFF7B7FE00216E
:10157000FF20FFF7B3FE0021A120FFF7AFFE0021FF
:10158000A620FFF7ABFE0021A820FFF7A7FE002151
:101590003F20FFF7A3FE0021C820FFF79FFE002198
:1015A000D320FFF79BFE00210846FFF797FE00219E
:1015B000D520FFF793FE00218020FFF78FFE00214A
:1015C000D820FFF78BFE00210520FFF787FE0021C2
:1015D000D920FFF783FE0021F120FFF77FFE0021D5
:1015E000DA20FFF77BFE00211220FFF777FE0021B3
:1015F000DB20FFF773FE00213020FFF76FFE002194
:101600008D20FFF76BFE00211420FFF767FE0021FD
:10161000BDE81040AF20FFF761BE010202030405E0
:10162000060708090A0B0C0D0E0F10100000000031
:101630000000000001020304060708090000000082
:10164000010203046416000800000020D00200001C
:101650002801000884170008D002002000070000BD
:1016600084010008211BF888012AFF050215F81BD8
:101670001F08012A7F2004119F80F03B8082010017
:101680000916E2A2928A86828080041840807F1721
:101690002424A4FEA3222322CC0214FF1508060151
:1016A000FF2B0104010511FF02020258081010105F
:1016B000FF109008C3021108080F100444827F0134
:1016C000808040432C10284681A01809404048489B
:1016D00048C8784F060515484840400009150312D0
:1016E000122222528A063C106080BA19040B11C0E3
:1016F00030FB1E404043407F061C7F424106094F9D
:10170000C02941080B1110D030FF30D0121C10102E
:101710001F3D080402019E0D11010204082111164B
:10172000FE222222FE0712FE828292A29E100880D2
:10173000601F0242827F0F11FF402F102C43801147
:10174000000B1490884C57A42454548C841808011E
:10175000018042221A07441D423E01018AF9E1003C
:101760000D14E4242CB4252624B42C24E404180AF3
:10177000FF02011E1212121E418609116029E48126
:041780001324F4003A
:04000005080000ED02
:00000001FF
