:020000040800F2
:1000000030220020050100086D1900086919000858
:100010006B190008BF0D00088D1A000800000000D1
:10002000000000000000000000000000711900083E
:10003000C10D0008000000006F19000873190008C6
:100040001F0100081F0100081F0100081F01000810
:100050001F0100081F010008C50D0008950E0008CB
:10006000C10E0008ED0E0008190F00081F0100085E
:100070001F0100081F0100081F0100081F010008E0
:100080001F0100081F0100081F0100081F010008D0
:100090001F0100081F0100081F010008450F00088C
:1000A0001F0100081F0100081F0100081F010008B0
:1000B0001F0100081F0100081F0100081F010008A0
:1000C0001F0100081F0100081F0100081F01000890
:1000D0001F010008811A00081F0100081F01000805
:1000E000F10D00081F0100081F010008DFF810D003
:1000F00000F0F8FB00480047752C0008AFF30080C3
:10010000302200200648804706480047FEE7FEE709
:10011000FEE7FEE7FEE7FEE7FEE7FEE7FEE7FEE7B7
:10012000C7190008ED000008202A04DB203A21FA54
:1001300002F00021704721FA02F3D040C2F1200200
:10014000914008431946704740EA01039B0703D0DA
:1001500009E008C9121F08C0042AFAD203E011F806
:10016000013B00F8013B521EF9D27047D2B201E0C8
:1001700000F8012B491EFBD270470022F6E710B5AC
:1001800013460A4604461946FFF7F0FF204610BD05
:1001900010B5044604E00B7800F8013B03B1491C9C
:1001A000521EF8D2204610BDCAB2401E10F8011FE0
:1001B0008A4202D00029F9D100207047421C10F871
:1001C000011B0029FBD1801A7047034611F8012B4F
:1001D00000F8012B002AF9D11846704730B50546C2
:1001E0000020034600E05B1C934205D2EC5CC85C37
:1001F000201A01D1002CF6D130BD00000FB400B59B
:100200008DB010A909900B9000914FF0FF300A902B
:1002100000200C9005480690054807906A4609A8FA
:100220000F9900F079F90DB05DF814FB3505000861
:10023000530500082DE9FF5F1D464FF0FF3BD5E950
:10024000014691465F464FF00008A9697F1C01985E
:100250008847296A824688470028F6D1BAF1FF3FCD
:100260000CD024F4C064002E19DD600614D5BAF158
:100270002B0F09D0BAF12D0F0ED103E0584604B070
:10028000BDE8F09F44F48064A9697F1C0198884709
:10029000761E8246002E02DDBAF1300F03D0B9F18E
:1002A000000F26D032E0A969761E44F400747F1C4A
:1002B000019888478246002E05DDBAF1780F06D0F6
:1002C000BAF1580F03D0B9F1000F10D01EE0B9F108
:1002D000000F02D0B9F1100F18D1A969761E24F4CD
:1002E00000747F1C019888478246102002E0082095
:1002F00000E00A20814609E008FB0908A969761E8A
:1003000044F400747F1C019888478246002E05DD66
:100310004946504600F0EBF80028EDDAE96901980B
:100320008847A00502D46FF00100A8E7E00725D1B7
:10033000600613D5600502D5C8F1000000E0404614
:1003400029680A1D2A600968220501D5087015E090
:10035000220701D5088011E008600FE02868011D20
:1003600029600068210502D580F8008006E0210799
:1003700002D5A0F8008001E0C0F8008038467EE792
:100380002DE9FF5FD2E901A74FF000089169994676
:100390001446DDF838B0464601988847054659EAC4
:1003A0000B0005D009E0A169761C01988847054635
:1003B000216A284688470028F5D1681C03D05FEAE7
:1003C000CA7005D015E04FF0FF3004B0BDE8F09FD3
:1003D0002068011D2160D0F800800AE05FEACA7041
:1003E00001D108F8015BA169761C7F1E019888473E
:1003F0000546002F1ADD681C18D0B9F1000F0DD08A
:10040000E81705EBD060421120F01F0059F82210C8
:100410002A1A012090400142E0D107E0BBF1000F11
:10042000DCD1216A284688470028D7D0E1690198A5
:100430008847BBF1000F07D1002E05DD5FEACA70C7
:1004400002D1002188F80010A068B84203DDBBF19A
:10045000000F03D017B16FF00100B6E73046B4E7E4
:1004600030B50B46014600202022012409E021FA84
:1004700002F59D4205D303FA02F5491B04FA02F581
:100480002844151EA2F10102F1DC30BD2DE9F05F18
:100490000546002092469B468846064681464024F3
:1004A0001BE02846414647462246FFF73DFE53469D
:1004B0005A46C01A914110D311461846224600F000
:1004C00023FA2D1A67EB01084F462246012000212E
:1004D00000F01AFA17EB00094E41201EA4F10104A6
:1004E000DFDC484631462A464346BDE8F09F3A28BD
:1004F00000D2303820F02002412A01D3A2F1370087
:10050000884201D34FF0FF30704700000268114469
:100510001378016018467047D1600449516104495D
:10052000116200211161114600F014BA0D05000896
:100530004B090008426842B1016811F8013B23B140
:10054000521EC0E90012184670470121C160881E82
:10055000704742685AB1C368016843B983688B42E7
:1005600005D0491E521CC0E90012002070474FF010
:10057000FF3070472DE9FE4F804681EA0300C00F2F
:100580000C46009021F0004123F00045B8EB02003A
:10059000A94105D24046214690461C460B460246DC
:1005A00023F00040104347D0270DC7F30A00C3F3E0
:1005B0000A510290401A019040286BDAC3F31300ED
:1005C00040F4801B0098924620B10023D2EB030A2E
:1005D00063EB0B0B01985946C0F14002504600F006
:1005E00093F906460D4650465946019A00F09BF98C
:1005F00010EB08006141002487EA115284EAE77396
:100600001A4340D0009A62B3019A012A4FEA075276
:1006100015DC001B61EB02014FF0004202EA0752B9
:10062000CDE90042001C41F5801132462B4600F016
:1006300038FB03B0BDE8F08F40462146F9E7001BC8
:1006400061EB0201001C41F5801300185B4120188A
:10065000A2F5001747EB030140EAD570B6196D41CA
:1006600011E06D084FEA360645EAC0754FEA0752B9
:10067000001B61EB0201001C41F5801149084FEAA3
:1006800030000019514132462B4603B0BDE8F04F0F
:1006900000F0F8BA0098012240000023D0EB0202DB
:1006A00063EBE073009821464FEAE074B8EB00007A
:1006B00061EB0401E9E783F000435BE781F000416F
:1006C00058E72DE9FE4F81EA030404F0004421F0CD
:1006D000004100944FF0000B23F0004350EA010466
:1006E0005ED052EA03045BD0C3F30A54C1F30A5547
:1006F0002C44A4F2F3340194A0FB0254C1F313017F
:1007000041F48011C3F3130343F4801301FB02444B
:1007100000FB034E840A970A44EA815447EA835750
:10072000A4FB076802958D0A05FB07854FEA932C09
:1007300004FB0C542705029D4FEA065847EA16377A
:10074000B5EB08056EEB070C870E920E47EA811792
:1007500042EA8312A7FB0201B6EB0B0164EB000433
:100760002B0D43EA0C335E1844EB1C50DA4651461D
:10077000E7FB0201C5F313044FEA0B3343EA1453BA
:100780004FEA0432019C43EA0603A4F10C040294EC
:10079000009CCDE900B400F084FA03B0BDE8F08F0E
:1007A00000200146F9E72DE9F04D81EA030404F049
:1007B000004B21F0004514464FF0000A23F00041A1
:1007C00050EA050220D054EA01021DD0C5F30A57B1
:1007D0000246C5F31303C1F31300C1F30A5640F4F4
:1007E000801543F48013A7EB0608101BD64608F2C9
:1007F000FD3873EB050002D308F1010801E09218FF
:100800005B41B8F1000F03DA00200146BDE8F08D2E
:1008100000204FF48011064684460EE0171B73EB50
:10082000050705D3121B63EB050306434CEA010CD5
:1008300049084FEA300092185B4150EA0107EDD1B8
:1008400052EA030012D082EA040083EA0501084359
:1008500005D0101BAB4106D20122002306E0002286
:100860004FF0004302E06FF0010253101AEB060054
:100870004CEB085110EB0A0041EB0B01BDE8F04DC9
:1008800000F000BAC1F30A52C1F3130140F2FF3382
:1008900041F480119A4202DA00200146704740F28A
:1008A00033439A42A2F2334202DC5242FFF73CBC8D
:1008B00000F02AB830B5041E71F1000404DB4FF0DB
:1008C0000044404264EB0101141E73F1000405DB97
:1008D0001C464FF00043524263EB0403994208BFA9
:1008E000904230BD064C074D06E0E06840F0010341
:1008F00094E8070098471034AC42F6D3FFF7FAFBB0
:100900004064000860640008202A04DB203A00FAF2
:1009100002F1002070479140C2F1200320FA03F356
:10092000194390407047202A06DBCB17203A41FA42
:1009300002F043EAE07306E041FA02F3D040C2F16C
:1009400020029140084319467047C0B24FF4F0515D
:1009500000F0F6B92DE9F34F8BB04FF0000801F12C
:100960000C000C464FF0010B46460DF1080A0190B1
:100970006269012101989047051E2DD0252D2CD0AC
:10098000216A8847C0B16269012101989047216AB4
:1009900088470028F7D1411E62690198904700E01E
:1009A000761CA1690B988847216A88470028F7D1EF
:1009B000E1690B988847DBE7A1690B9888470746F0
:1009C000A84201D1761CD3E7E1690B9888477F1CC8
:1009D00002D1B8F1000F6FD047E1002762693D46B0
:1009E0003946019890472A2804D16269012101986B
:1009F00090470125DFF888926269012101989047AC
:100A0000A0F130010A290AD24F45E5DC07EB870146
:100A100000EB4107303FDFD445F01005ECE7E90675
:100A200001D46FF000476C280AD04C2814D06828F5
:100A300015D06A280DD074281CD07A281AD01DE051
:100A400062690121019890476C2802D045F00405A5
:100A500014E045F002050DE045F020050AE062696A
:100A6000012101989047682802D045F0080505E06B
:100A700045F400656269012101989047C4E9015776
:100A800065283DD019DC58287AD00CDC452837D0B1
:100A900004DC252826D0412831D131E046282FD04A
:100AA00047282CD12CE05B2877D0612828D06328F8
:100AB0007CD0642823D15AE0D1E06F2848D008DCEC
:100AC00066281DD067281BD0692821D06E2816D132
:100AD00027E0702845D0732868D0752847D078283B
:100AE0000DD14DE0A1690B988847054625283FF4B4
:100AF00069AFE1690B9888476D1C3FF46AAFB4E0B9
:100B000023466A466FF001000B99AFF300809FE027
:100B100045F040006060A80723464FF0000236D43D
:100B20003EE0E8077FF447AF2068011D21600068C0
:100B3000290501D506701BE7290701D5068017E7AF
:100B4000A90703D5F117C0E9006111E706600FE7B7
:100B500045F040006060A80723464FF0080216D415
:100B60001EE040F60E0125EA0100606016E045F047
:100B700040006060A80723464FF00A0207D40FE048
:100B800045F040006060A80708D5234610226FF0AA
:100B900001000B99AFF300805AE007E023461022D2
:100BA0006FF001000B99FFF745FB51E04FF0000992
:100BB0004F464B46632802D05B2807D041E020799E
:100BC000C00601D40120A06001273AE0626901213A
:100BD000019890475E2805D14FF0010962694946A6
:100BE00001989047216939B900210A46534643F8D4
:100BF0002120491C0829FADBB0B3216969B9C11762
:100C000000EBD16253110AEB830122F01F02821A1A
:100C100001200B68904003430B6062690121019839
:100C200090475D28E8D1B9F1000F09D00020514666
:100C300051F82020D24341F82020401C0828F7DB3F
:100C400002AB224600976FF001000B99FFF798FB6B
:100C500000280CDA401C08D1BBF1000F05D04FF082
:100C6000FF300DB0BDE8F08FFFE74046F9E7E90738
:100C700001D108F1010806444FF0000B78E60000AE
:100C8000CCCCCC0C10B5141E73F1000408DA401C57
:100C900041F1000192185B411A4301D120F001009B
:100CA00010BD2DE9F04D92469B4611B1B1FA81F28B
:100CB00002E0B0FA80F220329046FFF725FE0446AB
:100CC0000F4640EA0A0041EA0B0153465A460843E0
:100CD00013D0114653EA010019D0C8F14002504622
:100CE000FFF722FA05460E46504659464246FFF7A0
:100CF0000BFE084305D0012004E020463946BDE83C
:100D0000F08D0020054346EAE0762C4337430A98ED
:100D10006305E40AA0EB08000022FD0A44EA4754F8
:100D20000A3002D500200146E9E7010510196941A2
:100D3000DDE9084500196941BDE8F04DA2E7000072
:100D40007F2801D9002208E0064A02EB5002C007C2
:100D5000127800D1120902F00F02012090400840E1
:100D6000704700004260000870B58C1810F8015BF5
:100D700015F0070301D110F8013B2A1106D110F834
:100D8000012B03E010F8016B01F8016B5B1EF9D138
:100D90002B0705D40023521E0DD401F8013BFAE7BE
:100DA00010F8013BCB1A921C03E013F8015B01F829
:100DB000015B521EF9D5A142D8D3002070BDFEE7D9
:100DC0007047000010B5064C2068C00706D0054AE1
:100DD0000549064802F042F80120206010BD0000DD
:100DE00014040140B400002001000001BC030020F5
:100DF00070B5244C2068244D400506D5234A294669
:100E0000234802F02BF8201520602068000508D543
:100E10001E4A2946121D1E4802F020F84FF40060B9
:100E200020602068C00408D5184A294608321848AE
:100E300002F014F84FF4805020602068800408D538
:100E4000124A29460C32124802F008F84FF40050BA
:100E500020602068400408D50C4A294610320C480E
:100E600001F0FCFF4FF4804020602068000408D5AA
:100E7000064A29461432064801F0F0FF4FF40040BC
:100E8000206070BD1404014001000001DC0000205E
:100E9000BC03002010B5064C2068800706D5054A23
:100EA0000549064801F0DAFF0220206010BD00006D
:100EB00014040140B800002001000001BC03002020
:100EC00010B5064C2068400706D5054A0549064876
:100ED00001F0C4FF0420206010BD00001404014094
:100EE000BC00002001000001BC03002010B5064C2E
:100EF0002068000706D5054A0549064801F0AEFFFF
:100F00000820206010BD000014040140C000002033
:100F100001000001BC03002010B5064C2068C0068B
:100F200006D5054A0549064801F098FF10202060C3
:100F300010BD000014040140C400002001000001A5
:100F4000BC03002070B51D4C20681D4D800606D5E1
:100F50001C4A29461C4801F081FF2020206020689F
:100F6000400607D5174A2946121D174801F076FF9B
:100F7000402020602068000607D5124A2946083222
:100F8000114801F06BFF802020602068C00508D563
:100F90000C4A29460C320C4801F060FF4FF4807077
:100FA00020602068800508D5064A29461032064888
:100FB00001F054FF4FF40070206070BD1404014034
:100FC00001000001C8000020BC03002070B50446E9
:100FD00000F014F90546601C02D00448007804446F
:100FE00000F00CF9401BA042FAD370BD08000020AD
:100FF0002DE9F84FDFF8C8910024A9F1040B23462E
:101000000F2709F1040AABF1040ED1E00125A54038
:1010100006EA0502AA4276D1DFF8A8C14E68A6EB1F
:101020000C0866452BD00DDC032E34D005DC36B31E
:10103000012E19D0022E2FD11BE0112E16D0122E08
:101040002AD119E0B8F5881F19D006DCB8F5803F21
:1010500015D0B8F5801F1FD111E0B8F5001F0ED0D4
:10106000B8F5041F18D10AE0CB6815E0CB681B1D4A
:1010700012E0CB6808330FE0CB680C330CE08B68D0
:101080002BB1012B4FF0080303D0456104E004238A
:1010900002E0056100E00023FF2A01D8064601E0D6
:1010A00000F104064FEA840501D9A5F12005D6F820
:1010B000008007FA05FC28EA0C0803FA05F548EA5F
:1010C0000508C6F800804D68ED0070D53E4DAE694C
:1010D00046F00106AE61AD6924F0030605F0010596
:1010E00000953A4D06EB050CDCF80850A607360FC4
:1010F00007FA06F825EA0805DFF8D480404503D151
:101100004FF0000825E052E0DFF8C880404502D1EA
:101110004FF001081DE0DFF8C080404502D14FF0DC
:10112000020816E0DFF8B480404502D14FF0030812
:101130000FE0DFF8AC80404502D14FF0040808E032
:10114000DFF8A080404502D14FF0050801E04FF0E4
:10115000060808FA06F848EA0508CCF808804D6841
:10116000D9F80060ED024D4601D5164300E09643E4
:101170002E604D68DAF80060AD02554601D5164381
:1011800000E096432E604D68DBF80060AD035D46DD
:1011900001D5164300E096432E604D68DEF80060EE
:1011A000ED03754601D5164300E096432E60641C9E
:1011B0000A681646E2407FF429AFBDE8F88F0000C8
:1011C000080401400000111000100240000001401E
:1011D00000080140000C01400010014000140140D3
:1011E00000180140001C01408068084000D0012028
:1011F00070470AB1016170470904FBE70148806844
:1012000070470000080000200248816802781144FD
:101210008160704708000020074810B5016841F060
:1012200010010160032000F085F80F2000F006F89F
:1012300000F024F8002010BD0020024070B50D4DD4
:1012400004464FF47A712878B1FBF0F00A49096836
:10125000B1FBF0F000F0ECFA48B9102C07D20022F4
:101260002146501E00F046F800206C6070BD012041
:1012700070BD000008000020140000200C4808B5D4
:10128000816941F001018161816901F001010091F1
:10129000C16941F08051C161C06900F08050009087
:1012A0000448416821F0E06141F08061416008BD7F
:1012B000001002400000014000280DDB00F01F027A
:1012C000012191404009800000F1E020C0F8801128
:1012D000BFF34F8FBFF36F8F7047002809DB00F01B
:1012E0001F02012191404009800000F1E020C0F878
:1012F00000117047F0B40E4B1B680C46C3F3022379
:10130000C3F10705042D00D90425191D072901D2B1
:10131000002300E0DB1E012606FA05F1491E2140EC
:1013200099409E40761E16403143F0BC00F0E4BB6D
:101330000CED00E0064900F0070208684FF6FF03D5
:10134000184040EA0220034A10430860704700003A
:101350000CED00E00000FA052DE9F0470F4605000E
:1013600061D0434E306800F00700B84209D23068BF
:1013700020F0070038433060306800F00700B842C2
:1013800051D128683B4C810712D5400703D56068CE
:1013900040F4E06060602878000703D5606840F49E
:1013A000605060606068A96820F0F00008436060E9
:1013B0002878C00728D06868012810D02168022842
:1013C00010D0890700292EDA616821F0030101435A
:1013D0006160FFF713FF804641F288390DE0216814
:1013E0008903EFE78901EDE7FFF708FFA0EB0801AC
:1013F000494502D90320BDE8F0876068696800F0BC
:101400000C00B0EB810FEFD1306800F00700B8425C
:101410000BD9306820F0070038433060306800F0A6
:101420000700B84201D00120E5E72878400705D53C
:101430006068E96820F4E06008436060287800078D
:1014400006D56068296920F4605040EAC1006060F8
:1014500000F038F86168084AC1F30311515CC840D4
:101460000649086006480068FFF7E8FE0020C2E76A
:1014700000200240001002408A5E00081400002094
:101480000C0000200448054900684968044AC1F37B
:101490000221515CC8407047140000200010024037
:1014A0009A5E00080448054900684968044AC1F387
:1014B000C221515CC8407047140000200010024057
:1014C0009A5E00080E4A51680E4801F00C03042B86
:1014D00011D0082B0FD10C48C1F38343C903C05C62
:1014E0000AD55168084AC1F34041921E515C054A31
:1014F0005043B0FBF1F07047044948437047000087
:101500000010024000127A007A5E000800093D00D7
:101510002DE9F84F040070D02078C04DC00749D0A5
:101520006868C0F38100012807D06868C0F38100B3
:10153000022809D16868C00306D52868800339D518
:1015400060680028E7D035E06068B0F5803F0BD0D8
:1015500010B1B0F5A02F11D0286820F48030286099
:10156000286820F4802002E0286840F48030286059
:10157000606890B1FFF742FE06460AE0286840F432
:1015800080202860F0E700BFFFF738FE801B64284A
:1015900073D828688003F7D50CE0FFF72FFE0646C6
:1015A00005E000BFFFF72AFE801B6428F0D82868FA
:1015B0008003F7D420789A4E80074FF001094FF04E
:1015C000000839D5686810F00C0F07D06868C0F3C0
:1015D0008100022809D16868C00306D42868800702
:1015E00014D52069012808D110E02069B0B1C6F8EF
:1015F0000090FFF703FE074605E00AE1FFF7FEFD56
:10160000C01B0228C4D828688007F7D528686169FC
:1016100020F0F80040EAC10028600DE0C6F8008024
:10162000FFF7ECFD074604E0FFF7E8FDC01B0228CA
:1016300023D828688007F7D4207800072CD579486C
:10164000A169D9B1C0F80090FFF7D8FD074604E0C2
:10165000FFF7D4FDC01B02280FD8686A8007F7D5B2
:1016600071484FF4FA510068B0FBF1F0009000BFF0
:101670000098411E0091FAD20EE080E0C0F8008090
:10168000FFF7BCFD074604E0FFF7B8FDC01B0228CA
:1016900075D8686A8007F7D42078400760D5E86974
:1016A0000027C00008D4E86940F08050E861E8698C
:1016B000012700F0805000905C480168C90513D4F0
:1016C0000168834641F480710160FFF797FD82460F
:1016D00006E000BFFFF792FDA0EB0A0064284ED899
:1016E000DBF80000C005F5D5E06801280AD008B194
:1016F000052813D0286A20F001002862286A20F00B
:10170000040002E0286A40F001002862E06841F22B
:10171000883B98B1FFF772FD82460BE0286A40F0E3
:1017200004002862EEE700BFFFF768FDA0EB0A01A6
:1017300059455AD8286A8007F6D50CE0FFF75EFDB8
:10174000824605E0FFF75AFDA0EB0A0159454CD847
:10175000286A8007F6D41FB1E86920F08050E8615C
:10176000E06988B36968C1F38101022944D0022885
:10177000C6F8608004D0FFF741FD044638E034E04D
:10178000FFF73CFD074604E0FFF738FDC01B0228C9
:101790002BD828688001F7D4206AB0F5803F05D1A6
:1017A0006868A16820F4003008436860D4E9080143
:1017B0000843696821F4741108436860C6F86090B2
:1017C000FFF71CFD044606E025E000BFFFF716FD0D
:1017D000001B022809D828688001F7D51BE000BF4C
:1017E000FFF70CFD001B022802D90320BDE8F88F8B
:1017F00028688001F4D40EE00128F7D06868226AD6
:1018000000F48031914204D1616A00F47010884282
:1018100001D00120EAE70020E8E7000000100240C4
:101820000000424280044242140000200070004048
:1018300010B5401EB0F1807F01D3012010BD4FF0E4
:10184000E02460610F21601700F056F90020A061CC
:1018500007202061002010BD10B5040015D0242001
:1018600084F841002068C16821F40051C16020461D
:1018700000F03FF80020606484F8410084F84200E2
:1018800044F8300F6060207410BD012010BD70B5A9
:10189000040004D094F84100002510B106E00120B6
:1018A00070BD84F84050204600F024F8242084F8CD
:1018B00041002068C16821F40051C160204600F059
:1018C00083F82068016921F4904101612068416931
:1018D00021F02A0141612068C16841F40051C160D2
:1018E0006564202084F8410084F84200656300208C
:1018F00070BD7047F0B585B0002400940194029447
:10190000039400681549884225D11548816941F43E
:1019100080418161816901F480410491816941F0D4
:1019200004018161806901AA00F0040004904FF471
:101930000070009002200125032682E86100094F13
:1019400069463846FFF754FBA8028DE871006946E6
:101950003846FFF74DFB05B0F0BD000000380140F0
:101960000010024000080140FEE7FEE7FEE7704776
:101970007047FFF749BC10B590B028216846FEF7C4
:10198000FCFB14210AA8FEF7F8FB022000900120BE
:10199000049010200024059007946846FFF7B8FDD6
:1019A00008B172B6FEE70F20CDE90A040C940D943D
:1019B00000210AA80E94FFF7CFFC002801D072B6D0
:1019C000FEE710B010BD704770B5044600680169AD
:1019D000E26821F44051114301612169A068084384
:1019E000616908432168CA6841F20C639A43024363
:1019F000CA6020684169A26921F4407111434161C4
:101A00001E492068884202D1FFF74CFD01E0FFF734
:101A100039FD00EBC00101EB001260686421800019
:101A2000B2FBF0F3B3FBF1F36FF018067343B2FBB4
:101A3000F0F5B2FBF0F605EB8305322303EB051559
:101A4000B5FBF1F5B6FBF1F605F0F00505EB061573
:101A5000B2FBF0F6B2FBF0F0B0FBF1F06FF0180261
:101A6000504306EB800003EB0010B0FBF1F021685F
:101A700000F00F002844886070BD0000003801406D
:101A8000014801F001B8000090040020FEE70000CA
:101A90000FB47CB50C0009AD01D0611E00E000213F
:101AA000CDE90001064B6A462946089800F01EF968
:101AB000002C02D0009A002111707CBC5DF814FB50
:101AC000F32300087CB50C001D461646014601D0E4
:101AD000601E00E00020CDE90010064B6A46294652
:101AE000304600F003F9002C02D0009A002111705A
:101AF0007CBD0000F32300080907090E002804DB61
:101B000000F1E02080F80014704700F00F0000F1B1
:101B1000E02080F8141D704702E008C8121F08C1B9
:101B2000002AFAD170477047002001E001C1121F5E
:101B3000002AFBD1704700000349884201D10348C5
:101B40007047002070470000EFBEADDE6800002047
:101B50002DE9FF5F82B00021DDE90430020DDDF8E0
:101B600040B0034318D044F61050A2F2FF32424373
:101B70001514119801281FD0A5EB0B00401C5FEA3B
:101B8000000A4FF000064E4FDFF83891B04650463D
:101B900015D5CAF1000413E0119801244AA30128C5
:101BA00001D16FEA0B010298119AC0E90031C0E936
:101BB000024206B0BDE8F09FCBF10000DFE704462B
:101BC0000021404A491842EB0450CDE9001012E0D0
:101BD000E00707D032463B4640464946FEF771FDD6
:101BE0008046894632463B4610461946FEF769FD57
:101BF00006460F466410002CEAD1DDE90401DDE958
:101C00000023BAF1000F06DAFEF75BFD42464B46B1
:101C1000FEF757FD05E0FEF7C6FD42464B46FEF7D0
:101C2000C2FD04460E460022284BFEF743FE03D8B1
:101C30004FF0FF30014607E00022254B2046314699
:101C4000FEF798FCFEF71EFE102409E0002C0ADBCC
:101C50000A220023FEF71AFC039B30321A55641E39
:101C600050EA0102F2D1641C039AC4F11103144436
:101C7000119A012A03D0012208430DD10AE008433A
:101C800004D000204FF0110B119072E7A3EB0B056D
:101C90006D1E0DE05B4504DD4FF0000205F101050E
:101CA00004E003DA4FF00002A5F10105002AECD0B0
:101CB00002981199C0E90231C0E9004579E70000B6
:101CC000000014400000F03F300000000000F0432E
:101CD0000000E03F10B504460068FFF72DFF002824
:101CE00003D02068FFF728FF046010BD2DE9FF4FE7
:101CF00095B09A46884606460025EEE1252877D11C
:101D000000242746F94A0121039400E0044316F811
:101D1000013F203B01FA03F01042F7D130782A2826
:101D200011D06FF02F033078A0F13002092A16D8B5
:101D3000039A44F0020402EB820203EB42021044D5
:101D4000761C0390EFE758F8042B0392002A03DA7D
:101D5000504244F40054039044F00204761C30785E
:101D60002E2816D116F8010F44F004042A280DD0AD
:101D70006FF02F023078A0F13003092B09D807EB60
:101D8000870302EB4303C718761CF3E758F8047B7C
:101D9000761C30786C280FD006DC4C2817D06828C9
:101DA0000DD06A2814D104E0742810D07A280FD1FD
:101DB0000DE044F400140AE044F4801401E044F41B
:101DC00040147278824202D104F58014761C761C8D
:101DD000307866280BD013DC582877D009DC00282F
:101DE00075D04528F6D04628F4D047281AD193E17B
:101DF00018E0632835D0642879D0652812D18BE1AA
:101E0000702873D008DC6728F1D069286FD06E285D
:101E10000DD06F2806D1ACE073282CD0752874D073
:101E2000782853D05246179990476D1C54E1C4F35B
:101E30000250022809D003280DD0D8F80010042839
:101E40000DD00D6008F1040846E1D8F80010EA173B
:101E5000C1E90052F6E7D8F800100D80F2E70D70E6
:101E6000F0E718F8041B8DF8001000208DF8010031
:101E7000EB46012003E058F804BB4FF0FF30610748
:101E80004FF0000102D40DE009F101018946B94289
:101E90000FDA8145F8DB1BF809100029F4D108E0BE
:101EA00009F1010189468142FADB1BF8091000297A
:101EB000F6D103985346A0EB090721463846179AF6
:101EC00000F080FA284400EB090507E044E008E14F
:101ED0000DE01BF8010B524617999047B9F1010923
:101EE000F7D2534621463846179AF2E039E00A21E4
:101EF000C4F302524FF0000B0091022A06D058F8AA
:101F0000040BC117032A09D00AE023E008F10700F7
:101F100020F00702F2E80201904605E000B2C11786
:101F2000042A01D140B2C117002906DA0A4600216D
:101F3000404261EB02012D2202E0220504D52B2252
:101F40008DF80420012203E0E20701D02022F7E708
:101F5000914657E00A2100E010214FF0000B00915C
:101F60000BE010214FF0000B44F00404082700910F
:101F700003E008204FF0000B0090C4F30252022A45
:101F800005D058F8040B0021032A08D008E008F116
:101F9000070020F00702F2E80201904603E080B259
:101FA000042A00D1C0B24FF0000922072AD53278A6
:101FB000702A07D0DDF800C08CF0100C5CEA0B0C26
:101FC00005D00EE040228DF80420012208E050EAFE
:101FD000010306D030238DF804308DF8052002224D
:101FE0009146009B83F0080353EA0B030AD150EAA1
:101FF000010201D1620705D530228DF804204FF08F
:1020000001097F1E3278582A04D039A20C920CAAFA
:1020100002920BE03BA2F9E75B46009AFEF736FA24
:102020000C9B9B5C029A521E0292137050EA0102B2
:10203000F2D1029804A9081A00F1200B600702D51A
:1020400024F4803400E001275F4502DDA7EB0B009C
:1020500000E0002000EB0B01009003984944401A77
:102060000390E00306D453462146179A039800F0E4
:10207000A9F90544002706E001A85246C05D17995A
:1020800090476D1C7F1C4F45F6DBE0030CD5534693
:102090002146179A039800F095F9054404E0302092
:1020A0005246179990476D1C0099481E00900029D0
:1020B000F5DC08E00298029952460078491C02912A
:1020C000179990476D1CBBF10001ABF1010BF1DCDE
:1020D0005BE100F065F90544761C307800287FF458
:1020E0000DAE19B02846BDE8F08F000009280100A8
:1020F000303132333435363738396162636465667E
:10210000000000003031323334353637383941423F
:102110004344454600000000600700D4062708F14C
:10212000070020F00700F0E80223804603F0004C8F
:102130005FEA0C0001D097A009E0200501D596A028
:1021400005E0E00701D095A001E0AFF24C0013904C
:10215000307823F0004365280CD006DC452809D0F0
:1021600046281DD047287FD13BE0662818D0672835
:102170007AD136E00021112F01DB112000E0781C1C
:10218000CDE9000104A90CA8FFF7E2FCDDE90D018F
:102190000C9A4FF0000B07F10109109200914EE0EC
:1021A0004FF000400097CDE9011004A90CA8FFF7FB
:1021B000CFFCDDE90D020C9B0F994FF0000B91460F
:1021C0001093009211B9791C00EB0109B7EB0900DB
:1021D00003D4C0F1FF3B07F10109A9EB070001900F
:1021E00042E0012F00DA01270021112F01DD11202B
:1021F00000E03846CDE9000104A90CA8FFF7A8FCCF
:10220000DDE90D010C9A00914FF0000BB9461092D8
:1022100021070FD4009A4A4503DA914601E0A9F15B
:102220000109B9F1010F05DD109AA9F10101515C15
:102230003029F4D0B84202DA10F1040F03DA012198
:10224000CDE9011010E0002803DC8344A9EB000174
:1022500002E0411C494500DD8946A0EB0B00401C13
:1022600001904FF000400290200705D401984845A6
:1022700002DB4FF0FF30019000208DF84B000298F8
:102280000DF14B07B0F1004F25D002200C902B2010
:102290000D90029800280CDA404202902D200D90FB
:1022A00007E00A210298FEF7DBF83031029007F8C8
:1022B000011D0C99481E0C900029F2DC02980028A0
:1022C000EFD1791E0D980870307800F0200040F0B2
:1022D000450007F8020D11A8C01BC01D02901398FD
:1022E000007800B1012000EB0901019801EBE071D9
:1022F000029801440398401A401E0390E00306D45C
:1023000053462146179A039800F05CF80544139849
:10231000007818B15246179990476D1CE00323D5F9
:1023200053462146179A039800F04CF805441BE0E9
:10233000BBF1000F07DB0098584504DD1098179992
:1023400010F80B0001E01799302052469047019891
:102350000BF1010B401E05F10105019004D12E2067
:102360005246179990476D1CB9F10001A9F1010976
:10237000DEDC05E017F8010B5246179990476D1CFB
:102380000299481E02900029F4DC53462146179A10
:1023900003989EE62D0000002B00000020000000A6
:1023A0002DE9F041044600251E461746880404D452
:1023B00005E039462020B0476D1C641EF9D528463B
:1023C000BDE8F0812DE9F041044600251E46904607
:1023D000C80301D5302700E02027880404D505E094
:1023E00041463846B0476D1C641EF9D52846BDE805
:1023F000F0814A68002A06D00A68531C0B601070EE
:102400004868401E4860704710B54FF0FF3400F038
:1024100061F802000CD01249002000BF00EBC0039D
:1024200051F823303BB1401C4028F7D3204610BD63
:102430006FF0020010BD0028F8DB00EBC00341F88C
:10244000232001EB83010022C1E901244A610A62D1
:1024500001F10C02CA600A6118310960496010BDBF
:102460003005002010B540281AD20E4A00EBC001FA
:1024700052F82100002813D0002042F8210002EB7E
:102480008104411EC4E901016061206204F10C0075
:1024900001F0C1F804F11800BDE8104001F0BBB82C
:1024A00010BD00003005002010B50446C06A401E73
:1024B000E0620DD1A069016919B1FFF7F5FF0028AD
:1024C00007DBE06C416819B12046BDE810400847C1
:1024D000002010BD70B501782F2921D1401C054680
:1024E000FDF762FE80B1421B14464FF000014FF031
:1024F0000C0001D50A4602E00C2A00DD02460C4918
:102500002846FDF76BFE08B1002070BD00210C20AD
:10251000002C01DA0C4602E00C2C00DD04466019A8
:102520000146BDE870400248001F00F003B80000FB
:10253000D00100202DE9FF41804608780D462F2864
:1025400000D14D1C2F212846FDF72EFE060021D07C
:1025500000270097019702970397741B39464FF0A5
:102560000C0001D50C4602E00C2C00DD044622468E
:1025700029466846FDF70CFE0DF804706946404692
:1025800000F010F8002802D03146FFF7D3FF04B066
:10259000BDE8F08104B029464046BDE8F04100F0B6
:1025A00001B800002DE9F0410D4600F12406446A0F
:1025B00009E000BFA4F11C070C22391D2846FDF7D5
:1025C0000DFE28B12468B442F4D10020BDE8F081AA
:1025D0003846FBE72DE9F0410546806917460E466F
:1025E000002410B1FFF7F6FF0446281DFDF7E6FDB5
:1025F000391B401C884202D32046BDE8F0813019C7
:102600002B1D02A2FFF744FA2044F6E72F257300A2
:1026100030B5044680690D46016911B12946FFF7BE
:10262000F7FF206BA843206330BD70B50446806976
:102630000E461546016921B13146FFF7F6FF002825
:1026400004DB206B304202D06FF0030070BD206BC2
:1026500028432063002070BD10B50446406931EA6C
:10266000000002D06FF0050010BDE06A68B9A069F3
:1026700002691AB1FFF7F0FF0028F5DBE06C016892
:1026800019B1204688470028EEDBE06A401CE06272
:10269000002010BD2DE9FF47804610788946154679
:1026A0002F2800D1551C2F212846FDF77DFD06005F
:1026B00024D000270097019702970397741B39468F
:1026C0004FF00C0001D50C4602E00C2C00DD044656
:1026D000224629466846FDF75BFD0DF80470694601
:1026E0004046FFF75FFF30B132464946FFF7D2FF61
:1026F00004B0BDE8F0876FF00200F9E746464C46AB
:1027000029464046FFF74EFF10B16FF00400EFE797
:10271000074820600C222946201DFDF739FD04F1F1
:102720001C0106F12400A66100F06EFF0020DFE727
:10273000EFBEADDE2DE9F04385B090460E4608466B
:1027400000F0EAF80546304600F0DAF807460020C7
:1027500006F00F040090019002906FF006090390BC
:10276000002D78D0002F76D05B4A29685B489142D3
:1027700007D1816941F004018161816901F004019F
:102780000491574A2968914207D1816941F00801B3
:102790008161816901F008010491524A29689142DE
:1027A00007D1816941F010018161816901F0100157
:1027B00004914D4A2968914207D1816941F0200175
:1027C0008161816901F020010491484A29689142A0
:1027D00007D1816941F040018161806900F04000CA
:1027E00004904246DFF808810223012008F110011D
:1027F000092A30D2DFE802F00C05070C090B191D7D
:102800002100019004E01120FBE7029300E0029018
:1028100051F824008946B04253D1601F042848462D
:1028200034D84169491C25D047E03248CDE901033D
:1028300005E0314ACDE9012001E03048019051F82E
:102840002400421C09D0B04207D06FF0030005B04D
:10285000BDE8F083FFE74846F9E741F8246018F93E
:10286000040000220521FEF745FD18F90400FEF7DB
:1028700034FD26E08169491C1FD1C169491C1CD166
:10288000016A491C19D1D9F8240010E0816A491C59
:1028900013D1C16A491C10D1016B491C0DD1416B88
:1028A000491C0AD1816B491C07D1D9F83C00401C56
:1028B00003D118F90400FEF7FFFC4FF0FF3149F88F
:1028C0002410386800900320039069462868FEF7BA
:1028D0008FFB0020BBE70000000801400010024011
:1028E000000C01400010014000140140001801409C
:1028F000A400002000001110000021100000311081
:1029000000F00F00102801D300207047014901EBAF
:1029100080007047100100200011072806D20449EA
:1029200051F8202012B101EB800070470020704761
:10293000F4000020024A03A1034800F0EFBF0000AA
:102940009C00002070696E00BC03002070B5154625
:102950000E460846FFF7E0FF04463046FFF7D0FF7B
:1029600044B138B1008881B22068FEF73DFC287080
:10297000002070BD6FF0060070BD70B515460E46A4
:102980000846FFF7C9FF04463046FFF7B9FF44B1D8
:1029900038B100882A4681B22068FEF72AFC002060
:1029A00070BD6FF0060070BD10B5006D446808681A
:1029B00000B10120A26C2260F0B348686FF00602FB
:1029C00008281FD10020A0608B68012B02D0022BA9
:1029D00018D101E0E06002E04FF40053E360CB68FF
:1029E00023B1012B07D0022B0CD101E0206105E0BF
:1029F0004FF4C06301E04FF4806323610B690BB9AE
:102A00004B690BB1104610BD096861600C21C4E927
:102A10000510E0612046FEF73AFF21686FF02000C4
:102A2000086021686FF04000086094F94C000022B3
:102A30000121FEF75FFC00E00AE094F94C00FEF78C
:102A40004CFC2068C16841F02001C160002010BD2D
:102A50002046FEF701FF94F94C00FEF72DFC20689C
:102A6000C16821F02001C1602068C16821F08001A7
:102A7000EBE70000024A101F0168024801F0F4BDB4
:102A8000600100209004002038B50546006D4468C0
:102A900021680868C043000702D4086848680090AD
:102AA0000868C043000608D40868C043400604D440
:102AB00000220A49284600F0D1F920680168C9437C
:102AC000890609D4C068800606D52846BDE8384086
:102AD0000022034900F0C2B938BD00000200000224
:102AE0000100000110B5006D4FF4803342680020F2
:102AF000126805E0401C984202D36FF0070010BD39
:102B00001468E443A406F5D450680870002010BD92
:102B1000006D40680068C16841F08001C160704785
:102B2000006D40680068C16821F08001C160704795
:102B3000006D42680020136859604FF480331168BB
:102B400005E0401C984202D36FF0070070470A6806
:102B5000D2435206F5D400207047704770B517492C
:102B600000E011460A681AB38242FAD34C6824F096
:102B700000435D180835854206D140681844083086
:102B800060F31E0408464C60436823F00044251897
:102B9000083595420CD152682244083262F31E0374
:102BA00043600A6888421268026001D008600846E3
:102BB000884202D00A680260086070BD20020020CE
:102BC0003EB500208DF808004FF0007116A000F00F
:102BD000E7F9164C0028206004DA01F033FE0146C4
:102BE00013A018E0014618A000F064FF2520009013
:102BF0006A464FF08071206800F08AF80120810653
:102C0000019001AA206800F083F8002806DA01F09C
:102C100019FE014610A000F04DFF3EBD012202A9A1
:102C2000206800F023FC3EBD70696E0000000020AB
:102C30006C6564206F70656E206661696C65643ACE
:102C40002025730D0A0000004C4544206465736321
:102C50003A2025640D0A00006C65642073657420B9
:102C60006D6F6465206661696C65643A2025730D3B
:102C70000A0000001CB5FEF7CFFAFEF77CFE00F05C
:102C80001FF8002501260D4C00F00EFD00F00CFD94
:102C90008DF8006001226946206800F0E7FB64209F
:102CA00000F01CF88DF80450012201A9206800F002
:102CB000DDFB642000F012F8E6E7000000000020D1
:102CC00070B5044C044D02E020688047241DAC42DE
:102CD000FAD370BD606400087C640008FEF776B922
:102CE00010B5044640280ED2084804EBC40150F841
:102CF000210040B1FFF7D8FB002803DB2046FFF797
:102D0000B1FB002010BD6FF0060010BD30050020A3
:102D10002DE9F0470B4606466FF0060C40286CD2B2
:102D20004D4C06EBC60754F8275095B306EBC6008A
:102D3000A0466FF005014FF0407908EB8000B3F139
:102D4000807F27D009DCB3F17D4F4BD0B3F17E4FAC
:102D500041D0B3F17F4F52D13AE0B3F1007F1DD0A3
:102D60004B454CD14368DB439B0161D4154602625D
:102D700000F048FC384906EBC60001EB8000183033
:102D80001DB3014654F8270010F1440000F03CFC4C
:102D900018E031E082B3116881602AE04368DB43C8
:102DA000DB0145D41546426100F02CFC2A4906EBB4
:102DB000C60001EB80000C303DB1014654F82700FD
:102DC0003C30E3E700F01FFC13E000F024FCF9E7DF
:102DD00092B180680CE04368DB43DB0128D45AB130
:102DE000406905E04368DB439B0121D422B1006ABE
:102DF00010600420BDE8F087FFE76046FAE7D0F8EE
:102E0000088040681C46C0F38066E86C9246006902
:102E100070B18CB100F0F6FB4A464FF07061284665
:102E2000FFF703FC070005D500F0EDFB3846E1E7AE
:102E30000846DFE700F0E7FBC5E90D68E86C52469D
:102E40002146036928469847044649462846FFF725
:102E5000DFFB2046CEE70000300500202DE9FC41D5
:102E6000040090460E460DD0002E17DA4FF4E271A2
:102E70002AA0CDE90001314B31A234A135A000F0E8
:102E800019FEFEE740F2C31124A0CDE900012B4B4F
:102E90003EA22EA12FA000F00DFEFEE7E06A6FF02B
:102EA000050580B1E06C43691BB1204698470028B6
:102EB0000ADB06F0FE40394E2427B0F1807F05D0B2
:102EC000B0F1007F13D02846BDE8FC8154F83C5F88
:102ED0000AE000BFAA68A5F10C0022B1801B90FB9C
:102EE000F7F0414690472D68A542F3D114E04FF02A
:102EF00080612046FFF78CFB54F8445F0AE000BF76
:102F0000AA68A5F1180022B1801B90FBF7F041469A
:102F100090472D68A542F3D10020D5E72E2E2F6DC6
:102F2000722D6C6962726172792F736F757263654D
:102F30002F6465766963652E63000000F05E00080B
:102F40006576656E74203E3D203000004153534548
:102F500052543A00252D3873206661696C65643AD5
:102F60002025732C2066756E6374696F6E3A202578
:102F7000732C2066696C653A2025732C206C696E71
:102F8000653A2025642E0D0A000000006465762055
:102F9000213D204D525F4E554C4C00003005002025
:102FA0002DE9FC410E4600280DD0002E17DA40F224
:102FB00007211CA0CDE90001224B23A228A12AA0B1
:102FC00000F078FDFEE740F2062116A0CDE90001F1
:102FD0001C4B33A222A124A000F06CFDFEE708D117
:102FE000FFF778FA10B14069BDE8FC816FF002008C
:102FF000FAE7FFF709FA0400F6D4DFF8B48004EB2F
:10300000C407314658F82700FFF726FB050004D512
:103010002046FFF727FA2846E6E708EB87004660D8
:103020002046E1E72E2E2F6D722D6C69627261725F
:10303000792F736F757263652F6465766963652E8A
:1030400063000000FB5E0008666C616773203E3D14
:10305000204D525F4F5F434C4F53454400000000EA
:103060004153534552543A00252D38732066616907
:103070006C65643A2025732C2066756E6374696FE5
:103080006E3A2025732C2066696C653A2025732CD6
:10309000206C696E653A2025642E0D0A0000000040
:1030A0007061746820213D204D525F4E554C4C009C
:1030B000300500202DE9FC4700290DD1002A0BD056
:1030C00040F2492121A0CDE90001284B28A231A1DD
:1030D00032A000F0EFFCFEE740280FD200EBC00367
:1030E0003C4850F823404CB100EB83035868C5437B
:1030F000ED0106D56FF00500BDE8FC876FF0060016
:10310000FAE7C0F38066894690469F6800F07AFA35
:103110004FF0807A52464FF010612046FFF785FA53
:10312000050002D500F06FFA0EE000F06CFAC4E979
:103130000D67E06C4246494683682046984705463D
:1031400051462046FFF764FA2846D5E72E2E2F6D0C
:10315000722D6C6962726172792F736F757263651B
:103160002F6465766963652E63000000075F0008C1
:103170002862756620213D204D525F4E554C4C29EA
:10318000207C7C2028636F756E74203D3D203029A3
:10319000000000004153534552543A00252D387326
:1031A000206661696C65643A2025732C2066756E13
:1031B0006374696F6E3A2025732C2066696C653ADA
:1031C0002025732C206C696E653A2025642E0D0A2B
:1031D00000000000300500202DE9FC410D46DDE92E
:1031E000084600280FD0634F0168B94217D14FF449
:1031F000CB7161A0CDE90001674B68A26FA171A0FE
:1032000000F058FCFEE740F295115BA0CDE900010B
:10321000614B7AA269A16BA000F04CFCFEE7002D87
:103220000FD0002A19D0002B23DA40F2991152A0B6
:10323000CDE90001584B75A260A162A000F03AFCF4
:10324000FEE740F297114CA0CDE90001524B75A268
:103250005AA15CA000F02EFCFEE74FF4CC7146A012
:10326000CDE900014C4B73A254A156A000F022FC02
:10327000FEE71CB1A768D94367B119E04FF4CD71DF
:103280003DA0CDE90001444B71A24CA14DA000F03E
:1032900011FCFEE7CF010BD440F29B1136A0CDE923
:1032A00000013D4B6E4A45A146A000F003FCFEE73D
:1032B000E7686FB989010BD44FF4CE712EA0CDE928
:1032C0000001354B674A3DA13EA000F0F3FBFEE74D
:1032D00000270760476087604361C0E9037200F11F
:1032E0001C01C0E90671016208314162C0E90A1798
:1032F0000763791EC0E90D7100F13C01C1630164EF
:10330000083141648164C0E91346064628782F28B5
:1033100023D16D1C2F212846FCF746FF78B1421BB4
:10332000144639464FF00C0001D50A4602E00C2A3B
:1033300000DD02464C492846FCF750FF18B16FF0FB
:103340000600BDE8FC8100210C20002C01DA0C46AF
:1033500002E00C2C00DD0446254400F053F94248FD
:103360002A463146001FFFF795F9044600F04BF955
:103370002046E6E7EFBEADDE2E2E2F6D722D6C6976
:1033800062726172792F736F757263652F646576EF
:103390006963652E63000000E05E00086465762DB9
:1033A0003E6D6167696320213D204D525F4D41476D
:1033B00049435F4E554D424552000000415353452D
:1033C00052543A00252D3873206661696C65643A61
:1033D0002025732C2066756E6374696F6E3A202504
:1033E000732C2066696C653A2025732C206C696EFD
:1033F000653A2025642E0D0A0000000064657620E1
:10340000213D204D525F4E554C4C0000666C61676B
:1034100073203E3D204D525F4F5F434C4F53454418
:10342000000000007061746820213D204D525F4E05
:10343000554C4C007479706520213D204D525F44FD
:1034400045565F545950455F524F4F54000000009D
:103450006F707320213D204D525F4E554C4C000043
:1034600060620008AC620008D00100202DE9FC5F1A
:1034700000290DD1002A0BD040F26A212AA0CDE903
:103480000001314B31A23AA13BA000F013FBFEE753
:1034900040280FD2464B00EBC00053F820404CB1FF
:1034A00003EB80035868C543AD0106D56FF00500F6
:1034B000BDE8FC9F6FF00600FAE7C0F380668A461D
:1034C00091469F6800F09EF84FF080686EB1002032
:1034D00040F020614FF0007B5A462046FFF7A5F8E8
:1034E000050004D500F08FF81BE04046F0E700F03F
:1034F0008AF8C4E90D67E06C4A465146C368204625
:103500009847054659462046FFF782F84EB1002DF0
:1035100007DD00F077F8424600212046FFF785F8E6
:10352000E0E72846C4E700002E2E2F6D722D6C694F
:1035300062726172792F736F757263652F6465763D
:103540006963652E63000000135F000828627566DA
:1035500020213D204D525F4E554C4C29207C7C2033
:1035600028636F756E74203D3D20302900000000F7
:103570004153534552543A00252D387320666169F2
:103580006C65643A2025732C2066756E6374696FD0
:103590006E3A2025732C2066696C653A2025732CC1
:1035A000206C696E653A2025642E0D0A000000002B
:1035B0003005002010B5002812D0A0F1080400F05A
:1035C00021F86068002807DA410005D020F00040AB
:1035D00060602046FFF7C2FABDE8104000F013B863
:1035E00010BD000005480021016001F6F87121F0CE
:1035F000004141600249086070470000300E002021
:1036000020020020704770474268116042684A609B
:10361000416008607047D0E900124A60D0E90012AA
:10362000116040600060704770B51E4D06462C6802
:10363000FFF7E8FF86B3B6F1004F2ED264B3F61C55
:1036400026F0030002E039B325460C46616821F0FC
:10365000004181422168F6D329606268002322F08C
:10366000004160F31E0242F00042C4E90032091A30
:1036700004F1080510290BD928440839426861F380
:103680001E02C0E9003222F000414160FFF766FAF5
:10369000FFF7B9FF284670BDFFE7FFF7B4FF002032
:1036A000F9E700002002002038B50B4C0BE000BF0A
:1036B0009DF80000A0F120015E2902D8218E490466
:1036C00007D002F06FFA684600F02EF80028EFDC11
:1036D00038BD02F035F9F6E7B40200200D4810B508
:1036E000002101624162028E6FF30E0242F4004239
:1036F00002864186C186818607A1C0F8B8104FF0C6
:10370000FF31C0F8BC1005A000F02EF8BDE8104055
:1037100002F0D2B9B40200202F0000001B5B324A35
:103720001B5B313B3148000070B50C4C0546D4F8AA
:10373000BC00401C02D0D4F8BC0008E04FF040713F
:1037400007A0FFF72DFC002807DBC4F8BC002946C2
:10375000BDE870400122FFF7ADBC70BDB40200208F
:1037600073657269616C31000FB47F2110B503ABD2
:103770000548029AFEF7A6F90146034800F006F84C
:1037800010BC5DF814FB00003402002070B50D4C35
:1037900006460D46D4F8BC00401C02D0D4F8BC004C
:1037A00008E04FF0407108A0FFF7FAFB002807DBA4
:1037B000C4F8BC002A463146BDE87040FFF756BE4B
:1037C00070BD0000B402002073657269616C310045
:1037D0000149C1F8B8007047B40200202DE9F0415A
:1037E0000546006D0024D0F80080E00805EB800657
:1037F0006107706DCF0EF84000070AD0D8F800308E
:1038000000222146284698470F21706DB940884311
:103810007065641CFF2CE8D90020BDE8F08170B50C
:103820006FF00603B1F17C4F29D0B1F1806F3ED12A
:1038300042B10646846B006D1568002C006801DB00
:10384000FF2C01D9184670BD03682A462146304630
:1038500098470028F7DBE01704EB5072D01022F0F5
:10386000070206EB8000A21A00F1540192000F2318
:10387000406D9340984395402843086015E0B2B1ED
:103880000146806B0028DDDBFF28DBD8C31700EB87
:103890005373DC1001EB840123F00703496DC01A58
:1038A0008000C14001F00F001060042070BD6FF077
:1038B000050070BD6FF08070C14201D11068704783
:1038C0006FF0050070472DE9F0410446006D904609
:1038D0000D460768A06B002811DBFF280FD8C11721
:1038E00000EB5171CB1004EB830221F00701526D04
:1038F000401A8000C240100701D000260AE06FF095
:103900000600BDE8F0817B682046A16B2A469847F7
:103910006D1C761C4645F6D33046F2E77CB50500B3
:1039200012D000291BD0002A24D0106800282CD0E7
:103930001E48CDE900024FF0407305222846FFF7EC
:103940004BFC04002CD02EE0BB2119A0CDE90001D6
:103950001E4B1FA222A124A000F0ACF8FEE7BC2160
:1039600013A0CDE90001194B2DA21DA11EA000F04E
:10397000A1F8FEE7BD210EA0CDE90001134B2CA25A
:1039800017A119A000F096F8FEE7BE2108A0CDE926
:1039900000010E4B2AA212A113A000F08BF8FEE743
:1039A0002846FEF797F920467CBD00006C000020F9
:1039B0002E2E2F6D722D6C6962726172792F646583
:1039C000766963652F70696E2E630000A25E000841
:1039D00070696E20213D204D525F4E554C4C0000C9
:1039E0004153534552543A00252D3873206661697E
:1039F0006C65643A2025732C2066756E6374696F5C
:103A00006E3A2025732C2066696C653A2025732C4C
:103A1000206C696E653A2025642E0D0A00000000B6
:103A20007061746820213D204D525F4E554C4C0012
:103A300064727620213D204D525F4E554C4C000063
:103A40006472762D3E6F707320213D204D525F4E83
:103A5000554C4C002DE9F0410546006D90460E4650
:103A60000768A86B002811DBFF280FD8C11700EBEF
:103A70005171CB1005EB830221F00701526D401A02
:103A80008000C240100701D0002410E06FF0060053
:103A9000BDE8F081BB6832782846A96B98470028BA
:103AA00003DA002CF4D02046F2E7641C761C44456F
:103AB000F0D3F8E70FB4802100B5A1B06846FCF759
:103AC0005CFB23AB7F216846229AFDF7FBFF014692
:103AD000684600F003F821B05DF814FB70B50B4C9C
:103AE00006460D462068401C07D14FF0407108A0E3
:103AF000FFF756FA002807DB20602A463146206887
:103B0000BDE87040FFF7B2BC70BD00002802002085
:103B100073657269616C31007CB50C46050007D095
:103B200000F0B8F8A0420ED1284600F0AFFB1CE030
:103B3000E6210FA0CDE90001154B16A21AA11CA089
:103B4000FFF7B8FFFEE72046FFF76EFD060002D143
:103B50000CB1401E7CBD686810B12868FFF72AFDD3
:103B600022463146284600F093F900207CBD000033
:103B70002E2E2F6D722D6C6962726172792F736FA8
:103B8000757263652F736572766963652E630000D5
:103B9000305F000872696E6762756620213D204DB6
:103BA000525F4E554C4C00004153534552543A001D
:103BB000252D3873206661696C65643A2025732C65
:103BC0002066756E6374696F6E3A2025732C2066CB
:103BD000696C653A2025732C206C696E653A202546
:103BE000642E0D0A000000001CB504000AD02068F5
:103BF000FFF7E0FC02B020460022BDE8104011466D
:103C000000F046B94FF4817104A0CDE900010B4BDF
:103C10000BA210A111A0FFF74DFFFEE72E2E2F6D76
:103C2000722D6C6962726172792F736F7572636540
:103C30002F736572766963652E630000445F000828
:103C400072696E6762756620213D204D525F4E5548
:103C50004C4C00004153534552543A00252D3873C3
:103C6000206661696C65643A2025732C2066756E48
:103C70006374696F6E3A2025732C2066696C653A0F
:103C80002025732C206C696E653A2025642E0D0A60
:103C9000000000001CB508B140681CBD40F249118D
:103CA00004A0CDE900010B4B0BA210A111A0FFF75E
:103CB00001FFFEE72E2E2F6D722D6C69627261720C
:103CC000792F736F757263652F736572766963659B
:103CD0002E630000985F000872696E676275662047
:103CE000213D204D525F4E554C4C000041535345F1
:103CF00052543A00252D3873206661696C65643A28
:103D00002025732C2066756E6374696F6E3A2025CA
:103D1000732C2066696C653A2025732C206C696EC3
:103D2000653A2025642E0D0A000000001CB560B124
:103D3000D0E903218A4216D1017A01F00102C1F3D0
:103D400040018A420DD100201CBD4FF490710AA0A1
:103D5000CDE90001104B11A215A117A0FFF7AAFE93
:103D6000FEE740681CBD914201D9881A1CBD40681D
:103D7000801A08441CBD00002E2E2F6D722D6C6918
:103D800062726172792F736F757263652F736572DA
:103D9000766963652E630000655F000872696E676F
:103DA00062756620213D204D525F4E554C4C0000FF
:103DB0004153534552543A00252D387320666169AA
:103DC0006C65643A2025732C2066756E6374696F88
:103DD0006E3A2025732C2066696C653A2025732C79
:103DE000206C696E653A2025642E0D0A00000000E3
:103DF0001CB5040004D0FFF799FF6168081A1CBDC8
:103E000040F23B1104A0CDE900010B4B0BA210A125
:103E100011A0FFF74FFEFEE72E2E2F6D722D6C695D
:103E200062726172792F736F757263652F73657239
:103E3000766963652E6300007E5F000872696E67B5
:103E400062756620213D204D525F4E554C4C00005E
:103E50004153534552543A00252D38732066616909
:103E60006C65643A2025732C2066756E6374696FE7
:103E70006E3A2025732C2066696C653A2025732CD8
:103E8000206C696E653A2025642E0D0A0000000042
:103E90001CB510B100290BD017E0D1210FA0CDE93E
:103EA0000001164B16A21BA11CA0FFF703FEFEE7A4
:103EB000002A0AD0D22109A0CDE900010F4B25A28A
:103EC00014A116A0FFF7F6FDFEE70023C36003610F
:103ED000836823F0030380E80E001CBD2E2E2F6D97
:103EE000722D6C6962726172792F736F757263657E
:103EF0002F736572766963652E630000205F00088A
:103F000072696E6762756620213D204D525F4E5585
:103F10004C4C00004153534552543A00252D387300
:103F2000206661696C65643A2025732C2066756E85
:103F30006374696F6E3A2025732C2066696C653A4C
:103F40002025732C206C696E653A2025642E0D0A9D
:103F50000000000028706F6F6C20213D204D525FE3
:103F60004E554C4C29207C7C202873697A65203D75
:103F70003D203029000000007CB50D46040014D01F
:103F8000002D1ED0FFF7D2FE002829D0E16820685E
:103F9000405C28706168E068491E88421DD1A068B5
:103FA00080F00100A060002018E04FF4AC710DA07B
:103FB000CDE90001134B14A218A11AA0FFF77AFD56
:103FC000FEE740F2591107A0CDE900010D4B23A2F5
:103FD00012A114A0FFF76EFDFEE7401CE060012077
:103FE0007CBD00002E2E2F6D722D6C696272617285
:103FF000792F736F757263652F7365727669636568
:104000002E630000AD5F000872696E6762756620FE
:10401000213D204D525F4E554C4C000041535345BD
:1040200052543A00252D3873206661696C65643AF4
:104030002025732C2066756E6374696F6E3A202597
:10404000732C2066696C653A2025732C206C696E90
:10405000653A2025642E0D0A000000006461746139
:1040600020213D204D525F4E554C4C007CB50E46F4
:1040700004004FF0000509D0FFF70CFE00282BD0FC
:104080002046FFF7B5FE00280CD00CE040F2BF112F
:1040900012A0CDE90001194B19A21EA11FA0FFF724
:1040A00009FDFEE701252169206846546168206901
:1040B000491E88420BD1A06880F002010020A16057
:1040C000206145B181F00101C4E9021003E0401C08
:1040D000206105B1E06001207CBD00002E2E2F6D17
:1040E000722D6C6962726172792F736F757263657C
:1040F0002F736572766963652E630000DC5F0008CC
:1041000072696E6762756620213D204D525F4E5583
:104110004C4C00004153534552543A00252D3873FE
:10412000206661696C65643A2025732C2066756E83
:104130006374696F6E3A2025732C2066696C653A4A
:104140002025732C206C696E653A2025642E0D0A9B
:10415000000000007CB5154604000E4602D0002E7B
:104160000CD019E04FF4BC7121A0CDE90001284B1F
:1041700028A22DA12EA0FFF79DFCFEE7002D0BD05D
:1041800040F279111AA0CDE90001214B36A226A1F7
:1041900027A0FFF78FFCFEE7FFF7C8FD002825D01A
:1041A000854200D905466168E0680A1A2168AA427A
:1041B000014406D92A463046FBF7C6FFE06828448A
:1041C00012E03046FBF7C0FFE1686068401A2A1A27
:1041D00030442168FBF7B8FFA06880F00100A060C0
:1041E000E1686068401A281AE06028467CBD00003B
:1041F0002E2E2F6D722D6C6962726172792F736F22
:10420000757263652F736572766963652E6300004E
:10421000BC5F000872696E6762756620213D204DA3
:10422000525F4E554C4C00004153534552543A0096
:10423000252D3873206661696C65643A2025732CDE
:104240002066756E6374696F6E3A2025732C206644
:10425000696C653A2025732C206C696E653A2025BF
:10426000642E0D0A000000002862756666657220E3
:10427000213D204D525F4E554C4C29207C7C2028FE
:1042800073697A65203D3D20302900001CB538B1A6
:104290000021C1600161816821F0030181601CBDC2
:1042A00040F20F1104A0CDE900010B4B0BA210A1AD
:1042B00011A0FFF7FFFBFEE72E2E2F6D722D6C690C
:1042C00062726172792F736F757263652F73657295
:1042D000766963652E630000545F000872696E673B
:1042E00062756620213D204D525F4E554C4C0000BA
:1042F0004153534552543A00252D38732066616965
:104300006C65643A2025732C2066756E6374696F42
:104310006E3A2025732C2066696C653A2025732C33
:10432000206C696E653A2025642E0D0A000000009D
:104330007CB5154604000E4602D0002E0CD019E0C4
:104340004FF4F57121A0CDE90001284B28A22DA141
:104350002EA0FFF7AFFBFEE7002D0BD040F2EB11D4
:104360001AA0CDE90001214B36A226A127A0FFF714
:10437000A1FBFEE7FFF73CFD002825D0854200D9D0
:104380000546616820690A1A2168AA42084406D9CC
:104390002A463146FBF7D8FE2069284412E0314610
:1043A000FBF7D2FE21696068401A2A1A8119206839
:1043B000FBF7CAFEA06880F00200A0602169606877
:1043C000401A281A206128467CBD00002E2E2F6D31
:1043D000722D6C6962726172792F736F7572636589
:1043E0002F736572766963652E630000F25F0008C3
:1043F00072696E6762756620213D204D525F4E5591
:104400004C4C00004153534552543A00252D38730B
:10441000206661696C65643A2025732C2066756E90
:104420006374696F6E3A2025732C2066696C653A57
:104430002025732C206C696E653A2025642E0D0AA8
:10444000000000002862756666657220213D204DDF
:10445000525F4E554C4C29207C7C202873697A652C
:10446000203D3D203029000030B50446006D87B066
:10447000182105686846FBF780FE04F16C00FFF721
:10448000B3FB04F18000FFF7AFFB2A6869462046C2
:10449000904707B030BDF0B51346026D87B00446B3
:1044A000166831F07F4267D14FEA216CD11F002797
:1044B00000F1540500F16C020CF1080C04F18000CD
:1044C000BCF1110F58D2DFE80CF04E4A4541385785
:1044D000575757575757091926323300ABB318228D
:1044E00019466846FBF730FE326869462046904719
:1044F000002820DB18226946284622E02BB31D68DD
:1045000010462946FFF708FBC4F89470002812DB18
:10451000C4F894502CE0C3B11D682946FFF7FCFA9B
:10452000C4F89870002806DBC4F8985020E01046C4
:10453000FFF7ACFE002007B0F0BD33B118461822DB
:104540002946FBF701FE1820F5E713E093B1D4F8F4
:10455000940002E073B1D4F89800186008E04BB101
:104560001C46104601E02BB11C46FFF7DFFB206024
:104570000420E0E70846DEE76FF00500DBE738B52A
:104580000446006D05686FF08070091813D0C142B1
:104590000ED1694604F18000FFF7EEFC012817D028
:1045A0000020C4F89C00296920468847002038BDB7
:1045B0006FF0050038BD6A686946204690470028BC
:1045C000F8DB9DF8001004F16C00FFF74FFDEDE7FC
:1045D000AA689DF80010204690476FF0030038BD90
:1045E00070B50446006DD4F89410056804F16C00B1
:1045F000FFF792FA00280EDB04F18000D4F898103F
:10460000FFF78AFA002806DB04F1540120462A68E5
:10461000BDE87040104770BD2DE9F04106466C3092
:1046200017460D460446FFF735FB30B13A4629469A
:104630002046BDE8F041FFF78DBD306D0024D0F875
:1046400000800BE0D8F80420294630469047002827
:1046500002DA002C05D003E0641C6D1CBC42F1D3CF
:104660002046BDE8F081000070B588B015460E46C2
:1046700004461822324902A8FBF766FD64B3002EF7
:1046800037D0002D42D0286800284CD0182202A92B
:1046900004F15400FBF758FD0022114604F16C00B0
:1046A000FFF7F6FB0022114604F18000FFF7F0FB54
:1046B0002020C4F894000020C4F89800C4F89C009E
:1046C0002048CDE900054FF0E06306223146204640
:1046D000FEF782FD08B070BD40F2AB111AA0184B76
:1046E000CDE90001143B20A224A126A0FFF7E2F9A6
:1046F000FEE74FF4D67114A0114BCDE90001143B35
:104700002EA21EA11FA0FFF7D5F9FEE740F2AD11C2
:104710000DA00B4BCDE90001143B2CA217A119A051
:10472000FFF7C8F9FEE74FF4D77107A0044BCDE9B6
:104730000001143B29A211A112A0FFF7BBF9FEE76B
:10474000C85E0008840000202E2E2F6D722D6C692B
:1047500062726172792F6465766963652F73657221
:1047600069616C2E6300000073657269616C2021C1
:104770003D204D525F4E554C4C0000004153534577
:1047800052543A00252D3873206661696C65643A8D
:104790002025732C2066756E6374696F6E3A202530
:1047A000732C2066696C653A2025732C206C696E29
:1047B000653A2025642E0D0A0000000070617468BF
:1047C00020213D204D525F4E554C4C0064727620A6
:1047D000213D204D525F4E554C4C00006472762DA9
:1047E0003E6F707320213D204D525F4E554C4C0062
:1047F0002DE9F041036D446B1E684CB104468030D6
:10480000FFF796FD051E1BDDD4F89C00A8B117E04C
:1048100080460D46174600240AE0B26829784046D3
:104820009047002802DA002C05D003E0641C6D1CC0
:10483000BC42F2D32046BDE8F081F16820468847AB
:104840002846F8E70830092818D2DFE800F01513E9
:10485000110F0D0B0907050009A0704709A070474B
:104860000DA070470FA0704711A0704714A07047AB
:1048700015A070471AA070471EA070471FA0704770
:104880006F6B00006E6F20656E6F756768206D65D9
:104890006D6F727900000000492F4F206572726FB2
:1048A000720000006E6F7420666F756E6400000009
:1048B0007265736F757263652062757379000000AD
:1048C00065786973747300006F7065726174696FE5
:1048D0006E206E6F7420737570706F7274656400F3
:1048E000696E76616C696420617267756D656E745E
:1048F0000000000074696D656F757400756E6B6EF5
:104900006F776E206572726F7200000010B50446FA
:1049100009A10B48FBF759FC0948E10101D57221B7
:104920004170A10101D577218170610101D56E210E
:10493000C170034810BD00002D2D2D2D2D0000004D
:104940002C02002001A0FEF70FBF00001B5B324AC3
:104950001B5B313B3148000038B51A4C0D4601282D
:1049600012DB286880B1022217A1FBF737FC20B3C5
:10497000286848B16A4615A1FBF740FC01281CDBFA
:104980000098002819DB01E020680090FEF7A8F9E4
:10499000002807DAFFF756FF02460DA00099FEF740
:1049A000E3FE38BD009821688842FAD14FF0FF300D
:1049B00020600CA0FEF70CFF38BD0BA0FEF7D4FE64
:1049C00038BD0000580000202D680000256400005C
:1049D00064636C6F73653A2025643A2025730D0A71
:1049E000000000002F00000075736167653A2064C5
:1049F000636C6F7365205B6465736320283E3D3094
:104A0000295D0D0A0000000070B50C46054601281E
:104A10003ADB022225A12068FBF7E0FBA0B30622C7
:104A200023A12068FBF7DAFBC0B1032221A1206893
:104A3000FBF7D4FBC0B105221FA12068FBF7CEFB1A
:104A4000C0B106221EA12068FBF7C8FB0028214642
:104A5000284615D0BDE8704000F062BD21462846CA
:104A6000BDE8704000F06CBE21462846BDE87040AD
:104A700000F088B821462846BDE8704000F0DCBC54
:104A8000BDE8704000F0F0BD0FA0FEF76DFE16A06F
:104A9000FEF76AFE1DA0FEF767FE24A0FEF764FE87
:104AA000BDE870402DA0FEF75FBE00002D6800003D
:104AB000706F730063666700627566737A0000004A
:104AC00064617461737A000075736167653A20648C
:104AD000696F63746C203C636D643E203C61726757
:104AE000737C2D673E0D0A002020202020202064AA
:104AF000696F63746C20706F73203C706F7369749E
:104B0000696F6E7C2D673E0D0A000000202020207A
:104B100020202064696F63746C20636667203C61A9
:104B20007267737C2D673E0D0A0000002020202054
:104B300020202064696F63746C20627566737A202C
:104B40003C627566737A20283E3D30297C2D673E95
:104B5000203C2D727C2D773E0D0A00002020202065
:104B600020202064696F63746C2064617461737ABF
:104B7000203C2D637C2D673E203C2D727C2D773EA2
:104B80000D0A00002DE9F04190B00E460746402185
:104B90006846FBF7F2FA022F53DB02222AA1706863
:104BA000FBF71CFB00284CD040216846FBF7E5FAD8
:104BB000022226A17068FBF711FBDFF894806D4696
:104BC00008B102242BE02A464FF07C41D8F80000BF
:104BD000FEF79EF806002DD4002405E055F82410B9
:104BE0001CA0FEF7C1FD641CB4EB960FF6D31AA00F
:104BF000FEF7BAFD10B0BDE8F08100BF05EB8402FE
:104C0000A2F1080204D806EB840050F8040C00E07E
:104C1000002012A1FBF7F2FA012812DB641CBC424F
:104C2000ECD96A464FF08061D8F80000FEF770F8C2
:104C30000028DFDAFFF706FE014609A0FEF794FD23
:104C4000D8E70CA0D4E700002D6800002D67000015
:104C500058000020256420000D0A00002564000093
:104C600064696F63746C3A206366673A2025730D3C
:104C70000A00000075736167653A2064696F6374A8
:104C80006C20636667203C617267737C2D673E0D04
:104C90000A00000010B500F0F3FDBDE8104000214F
:104CA00000F09EBD70B50D460646022817DB0222B5
:104CB00025A16868FBF792FAB0B1022223A16868C7
:104CC000FBF78CFA90B1012221A16868FBF786FA04
:104CD00078B101221FA16868FBF780FA60B1BDE8D6
:104CE00070401DA0FEF740BD002407E04FF0407467
:104CF00004E04FF0807401E04FF00074032E08DBF5
:104D0000A86830B102221EA1FBF768FA08B944F086
:104D100080642D6821462846FEF742F9002805DA0E
:104D2000FFF790FD0246294616A009E01CB1BDE838
:104D3000704001F023B8FFF7E9FD01462A4615A0AF
:104D4000BDE87040FEF710BD2D67000072770000CF
:104D5000720000007700000075736167653A206497
:104D60006F70656E203C706174683E203C727C7789
:104D70007C72777C2D673E205B2D6E5D0D0A0000F6
:104D80002D6E0000646F70656E3A2025733A202501
:104D9000730D0A0025732025730D0A002DE9F043D9
:104DA000A1B00C46074680216846FBF7E6F90126CC
:104DB0004FF000084FF07809012F77DB022255A150
:104DC0002068FBF70BFA002870D020AA52A12068B7
:104DD000FBF714FA012869DB2098002866DB022F14
:104DE00054DB6068002851D0032502224BA1FBF759
:104DF000F5F9A0B102224AA16068FBF7EFF938B1DA
:104E0000022248A16068FBF7E9F928B102250AE00F
:104E10004FF00108022602E04FF002080426032F9B
:104E200034DBA06878B3BD4204DC04EB850050F8A5
:104E3000040C00E0002002223BA1FBF7CFF910B3E5
:104E4000BD4204DC04EB850050F8040C00E00020B7
:104E5000022236A1FBF7C2F930B1BD4206DC04EBF9
:104E6000850050F8040C02E064200EE000200222CD
:104E70002FA1FBF7B3F938B1BD4211DC04EB85007B
:104E800050F8040C0DE001E075208146209A4FF0A7
:104E9000000172434FF0800018D50A4619E005E082
:104EA0000020022223A1FBF799F950B122A0FEF7BE
:104EB0005BFC2DA0FEF758FC33A0FEF755FC3AA092
:104EC00025E001264FF000086320DEE7802A00D9A4
:104ED00002463D48209269460068FEF7EBF800283C
:104EE00008DAFFF7AFFC014638A0FEF73DFC21B021
:104EF000BDE8F08301D138A009E0334A014602F150
:104F00000402684652F828304A4698471DA0FEF72A
:104F10002BFCECE72D680000256400002D3100001B
:104F20002D3200002D3400002D7800002D6400008B
:104F30002D7500002D63000075736167653A20646C
:104F400072656164203C636F756E743E205B2D3129
:104F50007C2D327C2D345D205B2D787C2D647C2D66
:104F6000757C2D635D0D0A00202020202020205B11
:104F70002D315D3A203C636F756E742028312D31E0
:104F80003238293E0D0A0000202020202020205BFE
:104F90002D325D3A203C636F756E742028312D36BA
:104FA00034293E0D0A000000202020202020205B14
:104FB0002D345D3A203C636F756E742028312D339B
:104FC00032293E0D0A00000058000020647265611D
:104FD000643A2025730D0A0064726561643A206E9C
:104FE0006F20646174610D0A0000000038B50C4642
:104FF000012827DB022215A12068FBF7EFF808B390
:10500000022213A12068FBF7E9F8A8B16A4611A1B2
:105010002068FBF7F3F8012814DB0098002811DB67
:1050200000F0ACFE002806DAFFF70CFC02460AA0EE
:105030000099FEF799FB38BD0C4801680CA0FEF7FB
:1050400093FB38BD0CA0FEF78FFB38BD2D68000028
:105050002D670000256400006473656C6563743A15
:105060002025643A2025730D0A0000005800002016
:1050700025640D0A0000000075736167653A2064BD
:1050800073656C656374203C6465736320283E3DE2
:1050900030297C2D673E0D0A000000002DE9F04FFD
:1050A0000124A3B00D460746A0464FF07809012819
:1050B00070DB02226EA12868FBF790F8002869D007
:1050C0002868002858D0022632466AA1FBF786F8E5
:1050D00088B1022268A12868FBF780F838B1022263
:1050E00066A12868FBF77AF818B1012608E00220CB
:1050F00000E0042080460324022F3DDB686880B373
:10510000741CBE4204DC05EB860050F8040C00E081
:10511000002002225AA1FBF761F810B3BE4204DC62
:1051200005EB860050F8040C00E00020022255A197
:10513000FBF754F830B1BE4206DC05EB860050F8B0
:10514000040C02E064200EE0002002224EA1FBF7D6
:1051500045F838B1BE4208DC05EB860050F8040C77
:1051600004E009E07520814606E00020022247A104
:10517000FBF734F850B1641E381B401C00FB08F0EC
:1051800000218022002806DA084607E04FF00108D7
:105190006320E8E768E0802800D9104626464FF0F3
:1051A000800B219043E000BFB9F1640F0CD0B9F13E
:1051B000750F14D0B9F1630F1CD0BE4225D805EB92
:1051C000860050F8040C21E0BE4204D805EB8600AE
:1051D00050F8040C00E0002020AA2DA118E0BE42E7
:1051E00004D805EB860050F8040C00E0002020AA4B
:1051F00028A10DE0BE4204D805EB860050F8040C4F
:1052000000E0002020AA24A102E0002020AA23A17F
:10521000FAF7F4FF8246311B6A4601FB082042463A
:1052200020A9FAF791FFBAF1010F1DDB761CBBFB39
:10523000F8F12144B94201D9384602E0BBFBF8F04D
:105240002044B042B0D216486946219A0068FEF761
:105250000DF9002805DAFFF7F5FA014611A0FEF76F
:1052600083FA23B0BDE8F08F12A0FEF77DFAF8E7CD
:105270002D6800002D3100002D3200002D3400007B
:105280002D7800002D6400002D7500002D630000B6
:1052900025640000257500002563000025780000C6
:1052A000580000206477726974653A2025730D0AEE
:1052B0000000000075736167653A20647772697455
:1052C00065205B2D317C2D327C2D345D205B2D786B
:1052D0007C2D647C2D757C2D635D203C6461746144
:1052E0003E0D0A0070B50D46012812DB022210A106
:1052F0002868FAF773FF60B102220EA12868FAF756
:105300006DFF0D4C50B103220CA12868FAF766FF1F
:1053100040B1BDE870400AA0FEF726BA208E40F4E6
:10532000004002E0208E20F40040208670BD000086
:105330002D6800006F6E0000B40200206F666600EA
:1053400075736167653A206563686F203C6F6E7C9A
:105350006F66663E0D0A000070B5064C064D0C34B3
:10536000AC4206D2102105A0A3682268FEF7FCF922
:10537000F5E770BD8064000810650008252D2A73CC
:10538000202D2025730D0A0010B50A48FEF7ECF910
:105390000948FEF7E9F90948FEF7E6F90848FEF77B
:1053A000E3F90848FEF7E0F9BDE810400648FEF7CB
:1053B000DBB900008C6000081C610008AC610008CB
:1053C000F461000864610008D460000810B50E4C58
:1053D000206A002816D00DA0FEF7C6F9D4E908010E
:1053E000884205D107E0215C2218401C02F8011C0C
:1053F000616A8142F7D8206A401E2062481E00215F
:105400006062215410BD0000B40200201B5B3144D7
:105410001B5B315000000000402807D200EBC003A6
:10542000044850F8230008B1FDF7D4B86FF0060027
:10543000704700003005002038B50D46032841DBD9
:10544000022222496868FAF7C9FE00283AD00222EF
:105450001FA1A868FAF7C2FE30B102221DA1A868F8
:10546000FAF7BCFE18B12DE04FF0A06401E04FF058
:10547000C06416490222091D6868FAF7AFFEB8B188
:1054800012496A4608316868FAF7B8FE012819DB44
:105490000098002816DB10486A4621460068FDF790
:1054A00037FC002806DAFFF7CDF901460BA006E02D
:1054B0006442F0E7002C04DA044800991030FEF74B
:1054C00053F938BD0AA0FEF74FF938BDA4570008BC
:1054D0002D7200002D7700005800002064696F6372
:1054E000746C3A20627566737A3A2025730D0A004F
:1054F00075736167653A2064696F63746C206275C7
:1055000066737A203C627566737A20283E3D3029A6
:105510007C2D673E203C2D727C2D773E0D0A0000CD
:105520002DE9F04192B00C46074640216846FAF753
:1055300024FE022F6DDB022237A16068FAF74EFECF
:10554000002866D010AA35A12068FAF757FE012876
:105550005FDB022232A16068FAF740FE0028109853
:1055600018D0002801DA4042109040216846FAF72E
:1055700004FE1099DFF8AC806E4600291FDA32462F
:10558000D8F80000FDF7C4FB050006D5FFF75AF96F
:10559000024637E00028E6DCE7E7002406E000BF2B
:1055A00056F8241020A0FEF7DFF8641CB4EB950F2A
:1055B000F6D31EA0FEF7D8F812B0BDE8F0810225A0
:1055C00011E000BF06EB8502A2F1080204D804EB4B
:1055D000850050F8040C00E0002015A1FAF70EFE3B
:1055E000012816DB6D1CBD42ECD96A461099D8F82B
:1055F0000000FDF78DFB0028DEDAFFF723F90246F5
:10560000012F01DB216800E000210AA0FEF7ACF8C1
:10561000D2E70DA0CEE700002D680000257800003D
:105620002D67000058000020256420000D0A0000AE
:105630002564000064696F63746C3A2025733A2016
:1056400025730D0A0000000075736167653A2064D8
:10565000696F63746C203C636D643E203C617267CB
:10566000737C2D673E0D0A0038B50D46032825DBF7
:1056700002221F496868FAF7B1FDF8B102221D49FC
:10568000A868FAF7ABFD38B11A490222091DA868CB
:10569000FAF7A4FD18B111E04FF0E06401E04FF01B
:1056A000006413490222091D6868FAF797FD48B1A2
:1056B000022211A16868FAF791FD20B10FA0FEF750
:1056C00053F838BD644217486A4621460068FDF722
:1056D0001FFB002804DAFFF7B5F8014612A004E02A
:1056E000002CEEDA024800991030FEF73DF838BD84
:1056F000A4570008D05400082D630000757361673B
:10570000653A2064696F63746C2064617461737AB4
:10571000203C2D637C2D673E203C2D727C2D773EF6
:105720000D0A00005800002064696F63746C3A2011
:1057300064617461737A3A2025730D0A00000000D9
:1057400038B50D464FF08074022826DB022215A1E1
:105750006868FAF743FD00B3022213A16868FAF7FC
:105760003DFD98B16A4611A16868FAF747FD012826
:1057700013DB0F4D6A4621462868FDF7C9FA002C55
:1057800007DA0CA00099FDF7EFFF38BD4FF07F441A
:10579000EFE7286800F0F2FA38BD08A0FDF7E4FF53
:1057A00038BD00002D6800002D6700002564000052
:1057B0005800002025640D0A000000007573616721
:1057C000653A2064696F63746C20706F73203C705D
:1057D0006F736974696F6E7C2D673E0D0A0000005F
:1057E0002DE9FC41044640690E0020D0FFF78EF8F9
:1057F0000346211D0C20CDE9000116A2314616A05A
:10580000FDF7B2FF174F002505EBC50057F8200044
:10581000A04203D1294614A0FDF7A6FF6D1C402D20
:10582000F2D313A0FDF7A0FF54F8245F0EE0FFF7BA
:105830006DF80146231D0C220EA0FDF795FFE1E750
:10584000A5F11C00F11DFFF7CBFF2D68A542F7D194
:10585000BDE8FC8120000000252A737C25732025EB
:105860002D2A730030050020205B25645D000000B8
:105870000D0A00007C257320252D2A7300000000EE
:1058800000487047CC01002070B5144CA08E012850
:1058900022D9401E80B2A086618E081A001DC11751
:1058A00000EB917121F00301401AE18E80B2814238
:1058B00000D8002004EB401038300546FAF77EFC93
:1058C00060620246206229460448521CFAF760FCD6
:1058D000BDE8704000F030BA70BD0000B402002096
:1058E00010B5164C94F83200626AC01C00F0030038
:1058F00002B304EB401021463830FAF76FFCC8B110
:10590000608E626A04EB401021463830521CFAF770
:105910001BFC94F832000022401C00F0030060865B
:10592000E08E0421401C01D5104602E0042800DD71
:105930000846E0860020A08610BD0000B4020020CA
:1059400070B5154C0546606A1F2824D0216A814233
:105950000FD0208E000402D510A0FDF705FF606A6D
:1059600004E0211811F8011C2154401E216A8142D3
:10597000F7D36554206A0021401C2062606A401CF5
:1059800060622154208E000405D52946BDE8704090
:1059900004A0FDF7E9BE70BDB40200201B5B3140DE
:1059A0000000000025630000FFF710BD10B500F0F7
:1059B00071F8BDE81040FFF709BDFFF765BF10B5EE
:1059C000FFF78EFFBDE8104000F08CB80448016A74
:1059D000002904D0491E016202A0FDF7C5BE704730
:1059E000B40200201B5B31440000000000F052B8FC
:1059F0002DE9F0410025104C104E114F08E0326A9D
:105A00000E492068FAF7EAFB10B9002D11D125469E
:105A10000C34BC42F3D3002D0BD0346A04E0286868
:105A2000005DFFF78DFF641C2868FAF7C7FBA042F2
:105A3000F5D8BDE8F081000080640008B4020020C1
:105A40001065000870B5124CA08EE18E88421ED2FF
:105A5000401C80B2A086618E081A001DC11700EBA1
:105A6000917121F00301401A80B204EB40103830EC
:105A70000546FAF7A3FB60620246206229462046EB
:105A8000521CFAF785FBBDE8704000F055B970BDB7
:105A9000B40200200548D0E90812914204D2491C02
:105AA000016203A0FDF760BE70470000B402002051
:105AB0001B5B314300000000064800210162416287
:105AC000018E090405D5D0F8B82003A103A0FDF785
:105AD0004BBE7047B40200206D736800257320250B
